:020000040800F2
:10000000000002205D1B0008591A0008611A000850
:10001000691A0008711A0008791A00080000000027
:10002000000000000000000000000000811A00082D
:100030008D1A000800000000991A0008A51A00088F
:10004000AD1B0008AD1B0008AD1B0008AD1B000870
:10005000AD1B0008AD1B0008AD1B0008AD1B000860
:10006000AD1B0008AD1B0008AD1B0008AD1B000850
:10007000AD1B0008AD1B0008AD1B0008AD1B000840
:10008000AD1B0008AD1B0008AD1B00080000000000
:10009000000000000000000000000000AD1B000890
:1000A000AD1B0008AD1B0008AD1B0008AD1B000810
:1000B000B11A0008AD1B0008AD1B0008AD1B0008FD
:1000C000AD1B0008AD1B0008AD1B0008AD1B0008F0
:1000D000AD1B0008AD1B0008AD1B000800000000B0
:1000E000AD1B0008AD1B0008AD1B000800000000A0
:1000F000000000000000000000000000AD1B000830
:1001000000000000AD1B0008AD1B0008AD1B00087F
:1001100000000000000000000000000000000000DF
:10012000AD1B0008AD1B0008AD1B0008AD1B00088F
:10013000AD1B0008000000000000000000000000EF
:10014000000000000000000000000000AD1B0008DF
:10015000AD1B0008AD1B0008AD1B0008AD1B00085F
:10016000AD1B0008AD1B00080000000000000000EF
:10017000000000000000000000000000000000007F
:1001800000000000AD1B000800000000000000009F
:08019000AD1B0008AD1B0008C7
:1001980053B94AB9002908BF00281CBF4FF0FF31E6
:1001A8004FF0FF3000F00CB8ADF1080C6DE904CE4B
:1001B80001F0F9FCDDF804E0DDE9022304B0704742
:1001C800704700BF10B5054C237833B9044B13B101
:1001D8000448AFF300800123237010BD0C000020F9
:1001E80000000000C01E000808B5034B1BB10349FE
:1001F8000348AFF3008008BD000000001000002095
:10020800C01E000880B400AF054BD3F88830044AFC
:1002180043F47003C2F8883000BFBD4680BC704705
:1002280000ED00E080B582B000AF78607B68002BFD
:1002380001D1012340E07B6893F83D30002B06D1C3
:100248007B68002283F83C20786801F05DFC7B68BD
:10025800022283F83D207B681A687B6804331946BC
:10026800104600F011FA7B68012283F846207B686B
:10027800012283F83E207B68012283F83F207B68B7
:10028800012283F840207B68012283F841207B68A3
:10029800012283F842207B68012283F843207B688F
:1002A800012283F844207B68012283F845207B687B
:1002B800012283F83D20002318460837BD4680BD3B
:1002C80080B584B000AF78607B681B68DB68FB6032
:1002D8007B681B681B69BB60BB6803F00203002BCB
:1002E80020D0FB6803F00203002B1BD07B681B683F
:1002F8006FF002021A617B6801221A777B681B681B
:100308009B6903F00303002B03D0786800F0A1F980
:1003180005E0786800F094F9786800F0A3F97B6844
:1003280000221A77BB6803F00403002B20D0FB6877
:1003380003F00403002B1BD07B681B686FF00402DA
:100348001A617B6802221A777B681B689B6903F431
:100358004073002B03D0786800F07BF905E07868DB
:1003680000F06EF9786800F07DF97B6800221A7752
:10037800BB6803F00803002B20D0FB6803F00803D8
:10038800002B1BD07B681B686FF008021A617B6822
:1003980004221A777B681B68DB6903F00303002BD0
:1003A80003D0786800F055F905E0786800F048F95E
:1003B800786800F057F97B6800221A77BB6803F069
:1003C8001003002B20D0FB6803F01003002B1BD078
:1003D8007B681B686FF010021A617B6808221A7725
:1003E8007B681B68DB6903F44073002B03D07868D3
:1003F80000F02FF905E0786800F022F9786800F03D
:1004080031F97B6800221A77BB6803F00103002BDF
:100418000CD0FB6803F00103002B07D07B681B6836
:100428006FF001021A61786800F001F9BB6803F007
:100438008003002B0CD0FB6803F08003002B07D04F
:100448007B681B686FF080021A61786800F0ABFA6D
:10045800BB6803F04003002B0CD0FB6803F040039B
:10046800002B07D07B681B686FF040021A61786820
:1004780000F001F9BB6803F02003002B0CD0FB68E7
:1004880003F02003002B07D07B681B686FF0200265
:100498001A61786800F07EFA00BF1037BD4680BD4B
:1004A80080B584B000AF786039600023FB737B6847
:1004B80093F83C30012B01D10223B4E07B68012280
:1004C80083F83C207B68022283F83D207B681B6808
:1004D8009B68BB60BB6823F07703BB60BB6823F4F1
:1004E8007F43BB607B681B68BA689A603B681B687F
:1004F800B3F5005F3ED0B3F5005F00F28780B3F537
:10050800805F00F08680B3F5805F7FD8702B1AD0AB
:10051800702B7BD8602B50D0602B77D8502B3CD0D9
:10052800502B73D8402B58D0402B6FD8302B64D029
:10053800302B6BD8202B60D0202B67D8002B5CD0B9
:10054800102B5AD062E07B6818683B6899683B6852
:100558005A683B68DB6800F092F97B681B689B6807
:10056800BB60BB6843F07703BB607B681B68BA68F5
:100578009A604FE07B6818683B6899683B685A68DE
:100588003B68DB6800F07BF97B681B689A687B68CE
:100598001B6842F480429A603CE07B6818683B68BC
:1005A80059683B68DB681A4600F0F2F87B681B68FC
:1005B8005021184600F049F92CE07B6818683B6820
:1005C80059683B68DB681A4600F010F97B681B68BD
:1005D8006021184600F039F91CE07B6818683B6810
:1005E80059683B68DB681A4600F0D2F87B681B68DC
:1005F8004021184600F029F90CE07B681A683B682E
:100608001B681946104600F020F903E00123FB732C
:1006180000E000BF7B68012283F83D207B68002250
:1006280083F83C20FB7B18461037BD4680BD80B45C
:1006380083B000AF786000BF0C37BD4680BC704700
:1006480080B483B000AF786000BF0C37BD4680BC73
:10065800704780B483B000AF786000BF0C37BD46E8
:1006680080BC704780B483B000AF786000BF0C379F
:10067800BD4680BC704780B483B000AF786000BFCF
:100688000C37BD4680BC704780B485B000AF786039
:1006980039607B681B68FB607B68364A93420FD0E1
:1006A8007B68B3F1804F0BD07B68334A934207D005
:1006B8007B68324A934203D07B68314A934208D11F
:1006C800FB6823F07003FB603B685B68FA681343C0
:1006D800FB607B68274A93421BD07B68B3F1804F4D
:1006E80017D07B68244A934213D07B68234A9342ED
:1006F8000FD07B68224A93420BD07B68214A9342F1
:1007080007D07B68204A934203D07B681F4A9342F4
:1007180008D1FB6823F44073FB603B68DB68FA6828
:100728001343FB60FB6823F080023B685B6913435B
:10073800FB603B689A687B68DA623B681A687B688A
:100748009A627B680B4A934203D13B681A697B68BB
:100758001A637B681B6843F004027B681A607B6835
:1007680001225A617B68FA681A6000BF1437BD46D7
:1007780080BC7047000001400004004000080040B1
:10078800000C004000400140004401400048014086
:1007980080B487B000AFF860B9607A60FB681B6A04
:1007A8007B61FB681B6A23F00102FB681A62FB6825
:1007B8009B693B613B6923F0F0033B617B681B014C
:1007C8003A6913433B617B6923F00A037B617A69C9
:1007D800BB6813437B61FB683A699A61FB687A6975
:1007E8001A6200BF1C37BD4680BC704780B487B012
:1007F80000AFF860B9607A60FB681B6A7B61FB68D0
:100808001B6A23F01002FB681A62FB689B693B6154
:100818003B6923F470433B617B681B033A691343CC
:100828003B617B6923F0A0037B61BB681B017A698C
:1008380013437B61FB683A699A61FB687A691A62BB
:1008480000BF1C37BD4680BC704780B485B000AF80
:10085800786039607B689B68FB60FB6823F07003F5
:10086800FB603A68FB68134343F00703FB607B684F
:10087800FA689A6000BF1437BD4680BC704780B4E0
:1008880087B000AFF860B9607A603B60FB689B682E
:100898007B617B6923F47F437B613B681A027B6839
:1008A8001A43BB6813437A6913437B61FB687A690F
:1008B8009A6000BF1C37BD4680BC704780B485B0C5
:1008C80000AF786039607B6893F83C30012B01D128
:1008D800022350E07B68012283F83C207B680222D7
:1008E80083F83D207B681B685B68FB607B681B683E
:1008F8009B68BB60FB6823F07003FB603B681B6868
:10090800FA681343FB607B681B68FA685A607B6867
:100918001B681B4A934218D07B681B68B3F1804F51
:1009280013D07B681B68174A93420ED07B681B68FC
:10093800154A934209D07B681B68144A934204D035
:100948007B681B68124A93420CD1BB6823F0800372
:10095800BB603B685B68BA681343BB607B681B6815
:10096800BA689A607B68012283F83D207B68002280
:1009780083F83C20002318461437BD4680BC7047D6
:10098800000001400004004000080040000C004046
:100998000040014080B483B000AF786000BF0C37DE
:1009A800BD4680BC704780B483B000AF786000BF9C
:1009B8000C37BD4680BC704780B586B000AF786004
:1009C8007B68002B01D1012367E27B681B6803F079
:1009D8000103002B75D0884B9B6803F00C03042B94
:1009E8000CD0854B9B6803F00C03082B12D1824B6B
:1009F8005B6803F48003B3F5800F0BD17E4B1B6853
:100A080003F40033002B5BD07B685B68002B57D165
:100A1800012342E27B685B68B3F5803F06D1764BE1
:100A28001B68754A43F4803313601DE07B685B687C
:100A3800B3F5A02F0CD1704B1B686F4A43F4802389
:100A480013606D4B1B686C4A43F4803313600BE0F2
:100A5800694B1B68684A23F480331360664B1B6834
:100A6800654A23F4802313607B685B68002B13D0EE
:100A780000F0D6FE386108E000F0D2FE02463B697D
:100A8800D31A642B01D9032307E25B4B1B6803F4D9
:100A98000033002BF0D014E000F0C2FE386108E00B
:100AA80000F0BEFE02463B69D31A642B01D903232A
:100AB800F3E1514B1B6803F40033002BF0D100E045
:100AC80000BF7B681B6803F00203002B63D04A4B0E
:100AD8009B6803F00C03002B0BD0474B9B6803F07B
:100AE8000C03082B1CD1444B5B6803F48003002BD8
:100AF80016D1414B1B6803F00203002B05D07B681D
:100B0800DB68012B01D00123C7E13B4B1B6823F0B5
:100B1800F8027B681B69DB00374913430B603AE036
:100B28007B68DB68002B20D0344B01221A6000F070
:100B380077FE386108E000F073FE02463B69D31A7D
:100B4800022B01D90323A8E12B4B1B6803F00203F6
:100B5800002BF0D0284B1B6823F0F8027B681B6938
:100B6800DB00254913430B6015E0244B00221A6073
:100B780000F056FE386108E000F052FE02463B697C
:100B8800D31A022B01D9032387E11B4B1B6803F0FF
:100B98000203002BF0D17B681B6803F00803002BCD
:100BA80036D07B685B69002B16D0154B01221A6082
:100BB80000F036FE386108E000F032FE02463B697C
:100BC800D31A022B01D9032367E10B4B5B6F03F0A8
:100BD8000203002BF0D01BE0094B00221A6000F042
:100BE8001FFE38610EE000F01BFE02463B69D31A77
:100BF800022B07D9032350E1003802400000474286
:100C0800800E4742884B5B6F03F00203002BEAD14A
:100C18007B681B6803F00403002B00F09780002317
:100C2800FB75814B1B6C03F08053002B0FD1002305
:100C3800BB607D4B1B6C7C4A43F0805313647A4B3A
:100C48001B6C03F08053BB60BB680123FB75774BBB
:100C58001B6803F48073002B18D1744B1B68734A0C
:100C680043F48073136000F0DBFD386108E000F0A6
:100C7800D7FD02463B69D31A022B01D903230CE1A5
:100C88006A4B1B6803F48073002BF0D07B689B6869
:100C9800012B06D1644B1B6F634A43F001031367B2
:100CA8001CE07B689B68052B0CD15F4B1B6F5E4A71
:100CB80043F0040313675C4B1B6F5B4A43F001036B
:100CC80013670BE0584B1B6F574A23F00103136758
:100CD800554B1B6F544A23F0040313677B689B68CA
:100CE800002B15D000F09CFD38610AE000F098FD5B
:100CF80002463B69D31A41F28832934201D9032351
:100D0800CBE0494B1B6F03F00203002BEED014E03D
:100D180000F086FD38610AE000F082FD02463B697A
:100D2800D31A41F28832934201D90323B5E03E4BEE
:100D38001B6F03F00203002BEED1FB7D012B05D1C5
:100D4800394B1B6C384A23F0805313647B689B69CA
:100D5800002B00F0A180344B9B6803F00C03082B98
:100D68005CD07B689B69022B41D1314B00221A6011
:100D780000F056FD386108E000F052FD02463B697C
:100D8800D31A022B01D9032387E0274B1B6803F0F2
:100D98000073002BF0D17B68DA697B681B6A1A4301
:100DA8007B685B6A9B011A437B689B6A5B08013B13
:100DB8001B041A437B68DB6A1B061B4913434B6001
:100DC8001B4B01221A6000F02BFD386108E000F08F
:100DD80027FD02463B69D31A022B01D903235CE0A5
:100DE800114B1B6803F00073002BF0D054E0104B3C
:100DF80000221A6000F014FD386108E000F010FDD0
:100E080002463B69D31A022B01D9032345E0064B5E
:100E18001B6803F00073002BF0D13DE07B689B69F1
:100E2800012B07D1012338E0003802400070004050
:100E3800600047421B4B5B68FB607B689B69012B2A
:100E480028D0FB6803F480027B68DB699A4221D1D1
:100E5800FB6803F03F027B681B6A9A421AD1FA6862
:100E680047F6C07313407A68526A9201934211D1CF
:100E7800FB6803F440327B689B6A5B08013B1B04F8
:100E88009A4207D1FB6803F070627B68DB6A1B0635
:100E98009A4201D0012300E0002318461837BD46C6
:100EA80080BD00BF0038024080B584B000AF7860D4
:100EB80039607B68002B01D10123CCE0684B1B68AB
:100EC80003F007033A689A420CD9654B3A68D2B2E4
:100ED8001A70634B1B6803F007033A689A4201D003
:100EE8000123B8E07B681B6803F00203002B20D0C5
:100EF8007B681B6803F00403002B05D0594B9B68E3
:100F0800584A43F4E05393607B681B6803F0080376
:100F1800002B05D0534B9B68524A43F460439360BF
:100F2800504B9B6823F0F0027B689B684D49134344
:100F38008B607B681B6803F00103002B44D07B683F
:100F48005B68012B07D1474B1B6803F40033002B68
:100F580019D101237FE07B685B68022B03D07B6893
:100F68005B68032B07D13F4B1B6803F00073002B12
:100F780009D101236FE03B4B1B6803F00203002BF0
:100F880001D1012367E0374B9B6823F003027B689C
:100F98005B68344913438B6000F042FCF8600AE058
:100FA80000F03EFC0246FB68D31A41F288329342B5
:100FB80001D903234FE02B4B9B6803F00C027B689D
:100FC8005B689B009A42EBD1254B1B6803F0070333
:100FD8003A689A420CD2224B3A68D2B21A70204B25
:100FE8001B6803F007033A689A4201D0012332E0F4
:100FF8007B681B6803F00403002B08D0194B9B681F
:1010080023F4E0527B68DB68164913438B607B68E6
:101018001B6803F00803002B09D0124B9B6823F4CC
:1010280060427B681B69DB000E4913438B6000F04C
:1010380021F802460B4B9B681B0903F00F030A4972
:10104800CB5C22FA03F3094A1360094B1B68184664
:1010580000F0A4FB002318461037BD4680BD00BF32
:10106800003C024000380240D81E00080000002062
:10107800040000202DE9B04F90B000AF00237B633F
:101088000023FB6300233B630023BB63584B9B682F
:1010980003F00C03082B0DD0082B00F2A080002BC6
:1010A80002D0042B03D09AE0524BBB639AE0524B18
:1010B800BB6397E04E4B5B6803F03F037B634C4B8D
:1010C8005B6803F48003002B27D0494B5B689B09BE
:1010D80000223B627A623B6AC3F308000021464B58
:1010E80003FB01F2002300FB03F31344424AA0FB75
:1010F8000221F962BA62FA6A1344FB627B6B00222E
:10110800BB61FA61D7E90623D7E90A01FFF740F87E
:1011180002460B461346FB6353E0354B5B689B095D
:1011280000223B617A613B69C3F3080A4FF0000B68
:1011380052465B464FF000004FF00001590141EA6A
:10114800D261500102460B46B2EB0A0863EB0B0969
:101158004FF000024FF000034FEA891343EA986307
:101168004FEA8812B2EB080463EB09054FF000025E
:101178004FF00003EB0043EA5473E20014461D46A7
:1011880014EB0A033B6045EB0B037B604FF0000256
:101198004FF00003D7E9004529468B02214643EA70
:1011A800915321468A02104619467B6B0022BB6088
:1011B800FA60D7E90223FEF7EBFF02460B46134617
:1011C800FB630B4B5B681B0C03F0030301335B00F1
:1011D8003B63FA6B3B6BB2FBF3F3BB6302E0054B7B
:1011E800BB6300BFBB6B18464037BD46BDE8B08F38
:1011F800003802400024F40040787D0180B489B0B2
:1012080000AF7860396000237B6100233B610023D5
:10121800BB610023FB6159E10122FB6902FA03F378
:101228007B613B681B687A6913403B613A697B695B
:101238009A4240F048813B685B6803F00303012B46
:1012480005D03B685B6803F00303022B30D17B6851
:101258009B68BB61FB695B00032202FA03F3DB4373
:10126800BA691340BB613B68DA68FB695B0002FA44
:1012780003F3BA691343BB617B68BA699A607B68F8
:101288005B68BB610122FB6902FA03F3DB43BA69BD
:101298001340BB613B685B681B0903F00102FB69F3
:1012A80002FA03F3BA691343BB617B68BA695A60EF
:1012B8003B685B6803F00303032B17D07B68DB688C
:1012C800BB61FB695B00032202FA03F3DB43BA69E3
:1012D8001340BB613B689A68FB695B0002FA03F341
:1012E800BA691343BB617B68BA69DA603B685B68BB
:1012F80003F00303022B23D1FB69DA087B68083269
:1013080053F82230BB61FB6903F007039B000F22EF
:1013180002FA03F3DB43BA691340BB613B681A69FD
:10132800FB6903F007039B0002FA03F3BA6913434E
:10133800BB61FB69DA087B680832B96943F8221097
:101348007B681B68BB61FB695B00032202FA03F33D
:10135800DB43BA691340BB613B685B6803F0030277
:10136800FB695B0002FA03F3BA691343BB617B684C
:10137800BA691A603B685B6803F44033002B00F0DD
:10138800A2800023FB60564B5B6C554A43F48043B4
:101398005364534B5B6C03F48043FB60FB68514A16
:1013A800FB699B08023352F82330BB61FB6903F0E9
:1013B80003039B000F2202FA03F3DB43BA691340CD
:1013C800BB617B68484A934219D07B68474A93427D
:1013D80013D07B68464A93420DD07B68454A9342B6
:1013E80007D07B68444A934201D1042308E00723CD
:1013F80006E0032304E0022302E0012300E00023C7
:10140800FA6902F0030292009340BA691343BB6180
:101418003449FB699B080233BA6941F82320374BEA
:101428009B68BB613B69DB43BA691340BB613B689E
:101438005B6803F48013002B03D0BA693B6913433C
:10144800BB612E4ABB6993602C4BDB68BB613B696F
:10145800DB43BA691340BB613B685B6803F4001364
:10146800002B03D0BA693B691343BB61234ABB69AC
:10147800D360224B5B68BB613B69DB43BA691340AD
:10148800BB613B685B6803F40033002B03D0BA6987
:101498003B691343BB61194ABB695360174B1B680F
:1014A800BB613B69DB43BA691340BB613B685B685E
:1014B80003F48033002B03D0BA693B691343BB6143
:1014C8000E4ABB691360FB690133FB61FB690F2B93
:1014D8007FF6A2AE00BF00BF2437BD4680BC704770
:1014E8000038024000380140000002400004024079
:1014F80000080240000C024000100240003C01407D
:1015080080B483B000AF78600B467B8013467B7055
:101518007B78002B03D07A887B689A6103E07B880C
:101528001A047B689A6100BF0C37BD4680BC7047BF
:1015380080B485B000AF78607B6803F00703FB6078
:101548000C4BDB68BB60BA684FF6FF031340BB6007
:10155800FB681A02BB68134343F0BF6343F40033CC
:10156800BB60044ABB68D36000BF1437BD4680BC6B
:10157800704700BF00ED00E080B400AF044BDB68AB
:101588001B0A03F007031846BD4680BC704700BF1E
:1015980000ED00E080B483B000AF0346FB7197F91B
:1015A8000730002B0BDBFB7903F01F02064997F984
:1015B80007305B09012000FA02F241F8232000BF3E
:1015C8000C37BD4680BC704700E100E080B483B0B2
:1015D80000AF03463960FB7197F90730002B0ADB2F
:1015E8003B68DAB20C4997F907301201D2B20B44C2
:1015F80083F800230AE03B68DAB20849FB7903F074
:101608000F03043B1201D2B20B441A7600BF0C3709
:10161800BD4680BC704700BF00E100E000ED00E07F
:1016280080B489B000AFF860B9607A60FB6803F0F5
:1016380007037B617B69033B042B04D87B69C3F1F7
:101648000703FB6101E00423FB617B690433062B7C
:1016580003D97B69033BBB6101E00023BB614FF009
:10166800FF32FB6902FA03F3DA43BB681A40BB692D
:101678009A404FF0FF31BB6901FA03F3D9437B6805
:101688000B40134318462437BD4680BC7047000002
:1016980080B582B000AF78607B68013BB3F1807F92
:1016A80001D301230FE00A4A7B68013B53600F21F5
:1016B8004FF0FF30FFF78AFF054B00229A60044B7A
:1016C80007221A60002318460837BD4680BD00BFB0
:1016D80010E000E080B582B000AF78607868FFF76E
:1016E80027FF00BF0837BD4680BD80B586B000AF74
:1016F8000346B9607A60FB7300237B61FFF73CFF08
:1017080078617A68B9687869FFF78AFF024697F9BD
:101718000F3011461846FFF759FF00BF1837BD466E
:1017280080BD80B582B000AF0346FB7197F90730E2
:101738001846FFF72FFF00BF0837BD4680BD80B5AC
:1017480082B000AF78607868FFF7A2FF03461846BA
:101758000837BD4680BD000080B500AF0E4B1B6842
:101768000D4A43F4007313600B4B1B680A4A43F499
:1017780080631360084B1B68074A43F48073136047
:101788000320FFF7A7FF0F2000F008F800F096F9F4
:101798000023184680BD00BF003C024080B582B0DF
:1017A80000AF7860124B1A68124B1B7819464FF439
:1017B8007A73B3FBF1F3B2FBF3F31846FFF7BFFFFD
:1017C8000346002B01D001230EE07B680F2B0AD8BB
:1017D800002279684FF0FF30FFF787FF064A7B68E1
:1017E8001360002300E0012318460837BD4680BD7A
:1017F80000000020080000200400002080B400AF92
:10180800054B1B781A46054B1B681344034A1360A3
:1018180000BFBD4680BC704708000020280000209B
:1018280080B400AF024B1B681846BD4680BC7047A9
:101838002800002080B500AFFFF78EFF00F006F803
:1018480000F0BCF800F06CF800BFFDE780B594B07C
:1018580000AF07F1200330220021184600F0FFFAFC
:1018680007F10C0300221A605A609A60DA601A6164
:101878000023BB60284B1B6C274A43F0805313643A
:10188800254B1B6C03F08053BB60BB6800237B6057
:10189800224B1B68214A43F4404313601F4B1B68CB
:1018A80003F440437B607B6801233B624FF4803341
:1018B8007B620223BB634FF48003FB6319233B6401
:1018C8004FF4C8737B640423BB640423FB6407F1EF
:1018D80020031846FFF770F80346002B01D000F0EC
:1018E800B1F80F23FB6002233B6100237B614FF4B7
:1018F8008053BB610023FB6107F10C0303211846E9
:10190800FFF7D2FA0346002B01D000F09BF800BF86
:101918005037BD4680BD00BF00380240007000400F
:1019280080B586B000AF07F1080300221A605A603C
:101938009A60DA603B4600221A605A601E4B4FF0EC
:1019480080421A601C4B42F20F725A601A4B0022F6
:101958009A60194B40F2E142DA60174B00221A6193
:10196800154B80229A611448FEF75CFC0346002B55
:1019780001D000F067F84FF48053BB6007F108030B
:1019880019460D48FEF78CFD0346002B01D000F0E8
:1019980059F800233B6000237B603B461946064804
:1019A800FEF78CFF0346002B01D000F04BF800BF78
:1019B8001837BD4680BD00BF2C00002080B588B018
:1019C80000AF07F10C0300221A605A609A60DA60CF
:1019D8001A610023BB60194B1B6B184A43F00403C0
:1019E8001363164B1B6B03F00403BB60BB68002337
:1019F8007B60124B1B6B114A43F0800313630F4B40
:101A08001B6B03F080037B607B6800224FF400515E
:101A18000B48FFF775FD4FF40053FB6001233B6152
:101A280000237B610023BB6107F10C0319460448BE
:101A3800FFF7E4FB00BF2037BD4680BD00380240F9
:101A48000008024080B400AF72B600BF00BFFDE7D7
:101A580080B400AF00BFFDE780B400AF00BFFDE772
:101A680080B400AF00BFFDE780B400AF00BFFDE762
:101A780080B400AF00BFFDE780B400AF00BFBD4633
:101A880080BC704780B400AF00BFBD4680BC7047C3
:101A980080B400AF00BFBD4680BC704780B500AFC2
:101AA800FFF7ACFE00BF80BD80B500AF0248FEF76F
:101AB80007FC00BF80BD00BF2C00002080B483B0AD
:101AC80000AF00237B600F4B5B6C0E4A43F48043EE
:101AD80053640C4B5B6C03F480437B607B6800238E
:101AE8003B60084B1B6C074A43F080531364054B5B
:101AF8001B6C03F080533B603B6800BF0C37BD464E
:101B080080BC70470038024080B584B000AF786070
:101B18007B681B68B3F1804F15D10023FB600C4B29
:101B28001B6C0B4A43F001031364094B1B6C03F055
:101B38000103FB60FB68002200211C20FFF7D5FD94
:101B48001C20FFF7EEFD00BF1037BD4680BD00BF6B
:101B580000380240DFF834D0FEF754FB0C480D493A
:101B68000D4A002302E0D458C4500433C4188C42F0
:101B7800F9D30A4A0A4C002301E013600432A24256
:101B8800FBD300F075F9FFF755FE704700000220FF
:101B9800000000200C000020F81E00080C000020A7
:101BA80074000020FEE72DE9F047089F154604461B
:101BB8008E461E46002B40F0D2808A424DD9B2FA9A
:101BC80082FCBCF1000F02FA0CF3CCF1200E18BF16
:101BD8001D4620FA0EFE01FA0CF34EEA030E00FA37
:101BE8000CF30CBF8E461C464FEA1548A8B2BEFB44
:101BF800F8F1220C08FB11EE01FB00F342EA0E4259
:101C0800934206D9AA1801F1FF3E01D293421ED889
:101C18007146D21AA4B2B2FBF8F308FB1322584358
:101C280044EA0244A04206D92C1903F1FF3201D23A
:101C3800A0420FD81346241A43EA014027B124FAD8
:101C48000CF400233C607B603146BDE8F087023924
:101C58002A44DEE7023B2C44EDE7002A71D0B2FAB1
:101C680082F3DBB31E46C6F1200302FA06F521FA19
:101C780003F2B14020FA03F30B434FEA154E00FA82
:101C880006F41FFA85FCB2FBFEF00EFB10211A0CBD
:101C980000FB0CF842EA0142904506D9AA1800F167
:101CA800FF3101D290454ED80846A2EB08029BB2FC
:101CB800B2FBFEF10EFB112201FB0CFC43EA0243CE
:101CC8009C4506D9EB1801F1FF3201D29C453DD85D
:101CD8001146A3EB0C0341EA004101E08B1A0121F4
:101CE8004FEA154E1FFA85FCB3FBFEF0220C0EFBE3
:101CF800103300FB0CF842EA0342904506D9AA18B3
:101D080000F1FF3301D2904523D81846A2EB080210
:101D1800A4B2B2FBFEF30EFB132203FB0CFC44EA55
:101D28000244A44506D92C1903F1FF3201D2A44577
:101D380012D81346A4EB0C0443EA0040B4460E46FE
:101D48007CE71F268FE702382A44AEE702392B4486
:101D5800BFE702382A44D9E7023B2C44EAE78B4222
:101D680005D90FB1C7E90001002630466CE7B3FA80
:101D780083FCBCF1000F0FD18B4201D3824209D8FA
:101D8800841A61EB030301209E460FB1C7E9004E98
:101D9800002659E76046F8E7CCF1200E03FA0CF369
:101DA80022FA0EF521FA0EF41D4301FA0CF320FA7B
:101DB8000EF119434FEA154900FA0CF61FFA85F897
:101DC800B4FBF9F009FB104A0C0C00FB08F344EAD9
:101DD8000A44A34202FA0CF206D92C1900F1FF3A80
:101DE80001D2A34235D85046E41A89B2B4FBF9F3BC
:101DF80009FB134403FB08F841EA0441884506D966
:101E0800691803F1FF3401D2884525D8234643EAEF
:101E18000040A1EB0801A0FB029841454C4643460F
:101E280002D306D14E4504D2B9EB020468EB050390
:101E38000138002FACD0321B61EB030101FA0EFE12
:101E480022FA0CF34EEA030321FA0CF1C7E9003138
:101E58009EE702382C44C7E7023B2944D7E70244EF
:101E68000346934200D1704703F8011BF9E70000CD
:101E780070B50D4B0D4C00261D1BB6EBA50F09D1F7
:101E880000F01AF80A4C0B4B00261D1BB6EBA50FE9
:101E980005D170BD54F8043B98470136EDE754F876
:101EA800043B98470136F1E7F01E0008F01E0008D1
:101EB800F01E0008F41E0008F8B500BFF8BC08BC06
:101EC8009E467047F8B500BFF8BC08BC9E467047F0
:101ED80000000000000000000102030406070809D2
:081EE800C6FCFF7F01000000B1
:041EF000F1010008F4
:041EF400CD01000814
:0C1EF8000024F4001000000001000000B5
:0400000508001B5D77
:00000001FF
