:020000040800F2
:100000000000022061F900086D1300087313000856
:10001000791300087F130008851300080000000012
:100020000000000000000000000000008B1300082A
:100030009913000800000000A7130008B51300087A
:10004000B1F90008B1F90008B1F90008B1F90008E8
:10005000B1F90008B1F90008B1F90008B1F90008D8
:10006000B1F90008B1F90008B1F90008B1F90008C8
:10007000B1F90008B1F90008B1F90008B1F90008B8
:10008000B1F90008B1F90008B1F90008000000005A
:10009000000000000000000000000000B1F90008AE
:1000A000B1F90008B1F90008B1F90008B1F9000888
:1000B000B1F90008B1F90008B1F90008B1F9000878
:1000C000B1F90008B1F90008B1F90008B1F9000868
:1000D000B1F90008B1F90008B1F90008000000000A
:1000E000B1F90008B1F90008B1F9000800000000FA
:1000F000000000000000000000000000B1F900084E
:1001000000000000B1F90008B1F90008B1F90008D9
:1001100000000000000000000000000000000000DF
:10012000C1130008B1F90008B1F90008B1F90008DD
:10013000B1F900080000000000000000000000000D
:10014000000000000000000000000000D5130008BF
:10015000B1F90008B1F90008B1F90008B1F90008D7
:10016000B1F90008B1F9000800000000000000002B
:10017000000000000000000000000000000000007F
:1001800000000000B1F900080000000000000000BD
:08019000B1F90008B1F9000803
:1001A000A3F5803A704700BF154B002B08BF114BD9
:1001B0009D46FFF7F5FF00218B460F461148124A76
:1001C000121A0FF039FF0C4B002B00D098470B4B45
:1001D000002B00D098470020002104000D000B48A0
:1001E0000FF045FD0FF0DAFF2000290000F0BEFE01
:1001F0000FF044FD000008000000000000000000B7
:1002000000000000A0020020E0210020E50101081C
:1002100080B58AB000AF786007F1140300221A603D
:100220005A609A60DA601A617B681B68B3F1A04F6C
:100230003AD100233B611E4B1B6B1D4A43F0010367
:1002400013631B4B1B6B03F001033B613B694FF4D2
:10025000C0537B610223BB610023FB6103233B622C
:100260000A237B6207F114031946124807F0C8FD00
:100270000F4B5B6B0E4A43F0800353630023FB601C
:100280000B4B5B6C0A4A43F480435364084B5B6C32
:1002900003F48043FB60FB680022002143200AF046
:1002A0007CFD43200AF095FD00BF2837BD4680BD88
:1002B000003802400000024080B582B000AF786094
:1002C0007B681B68B3F1A04F0DD1094B5B6B084AEB
:1002D00023F0800353634FF4C051064807F014FF26
:1002E00043200AF084FD00BF0837BD4680BD00BF33
:1002F000003802400000024080B582B000AF786054
:100300007B68D3F8E0247B6803F29C4319461046CF
:100310000DF054FB00BF0837BD4680BD80B582B0EC
:1003200000AF78600B46FB707B68D3F8E004FA7886
:1003300079681346DB0013449B000B4403F51873E4
:100340001A68FB7819460DF08EFB00BF0837BD46D2
:1003500080BD80B582B000AF78600B46FB707B68D3
:10036000D3F8E004FA7879681346DB0013449B0065
:100370000B4420331A68FB7819460DF030FC00BF9F
:100380000837BD4680BD80B582B000AF78607B681D
:10039000D3F8E03418460DF074FD00BF0837BD46B1
:1003A00080BD80B584B000AF78600123FB737B68AB
:1003B000DB79022B01D000F0CBFF7B68D3F8E0346F
:1003C000FA7B114618460DF018FD7B68D3F8E0342F
:1003D00018460DF0BFFC00BF1037BD4680BD80B58C
:1003E00082B000AF78607B68D3F8E03418460DF037
:1003F00014FD7B681B6803F560631B687A681268EC
:1004000002F5606243F0010313607B68DB7A002B26
:1004100005D0054B1B69044A43F00603136100BF76
:100420000837BD4680BD00BF00ED00E080B582B05A
:1004300000AF78607B68D3F8E03418460DF009FD12
:1004400000BF0837BD4680BD80B582B000AF786080
:100450000B46FB707B68D3F8E034FA7811461846F7
:100460000DF061FD00BF0837BD4680BD80B582B08C
:1004700000AF78600B46FB707B68D3F8E034FA7805
:10048000114618460DF01DFD00BF0837BD4680BD62
:1004900080B582B000AF78607B68D3F8E03418464E
:1004A0000DF073FD00BF0837BD4680BD80B582B03A
:1004B00000AF78607B68D3F8E03418460DF070FD2B
:1004C00000BF0837BD4680BD80B582B000AF786000
:1004D0007B681B78002B3CD1204A7B68C2F8E03453
:1004E0007B681E4AC3F8C8221C4B4FF0A0421A601A
:1004F0001A4B04221A71194B0222DA71174B00228F
:100500009A71164B02225A72144B00229A72134BA4
:100510000022DA72114B00221A73104B00229A73D8
:100520000E4B0022DA730D4801F0D8FC0346002B75
:1005300001D000F00DFF8021084803F0ECF84022C4
:100540000021064803F0A0F880220121034803F0AF
:100550009BF8002318460837BD4680BDA002002046
:1005600080B584B000AF78600023FB730023BB73B9
:100570007B68D3F8C832184601F0BFFD0346FB7311
:10058000FB7B184600F0A1F90346BB73BB7B184602
:100590001037BD4680BD80B584B000AF78600023C1
:1005A000FB730023BB737B68D3F8C832184601F095
:1005B000DBFD0346FB73FB7B184600F086F9034620
:1005C000BB73BB7B18461037BD4680BD80B584B079
:1005D00000AF78600023FB730023BB737B68D3F804
:1005E000C832184601F0F5FD0346FB73FB7B184645
:1005F00000F06BF90346BB73BB7B18461037BD4652
:1006000080BD80B584B000AF7860084611461A46B8
:100610000346FB700B46BB7013463B800023FB7305
:100620000023BB737B68D3F8C802BB783A88F9789B
:1006300002F0C2FB0346FB73FB7B184600F045F952
:100640000346BB73BB7B18461037BD4680BD80B5E3
:1006500084B000AF78600B46FB700023FB7300236F
:10066000BB737B68D3F8C832FA781146184602F09B
:100670000DFC0346FB73FB7B184600F026F903468E
:10068000BB73BB7B18461037BD4680BD80B584B0B8
:1006900000AF78600B46FB700023FB730023BB7335
:1006A0007B68D3F8C832FA781146184602F0AFFDDD
:1006B0000346FB73FB7B184600F007F90346BB7348
:1006C000BB7B18461037BD4680BD80B584B000AFF7
:1006D00078600B46FB700023FB730023BB737B68C1
:1006E000D3F8C832FA781146184602F0A6FC034641
:1006F000FB73FB7B184600F0E8F80346BB73BB7B3B
:1007000018461037BD4680BD80B584B000AF786014
:100710000B46FB700023FB730023BB737B68D3F88D
:10072000C832FA781146184602F0EAFC0346FB7319
:10073000FB7B184600F0C9F80346BB73BB7B184629
:100740001037BD4680BD80B485B000AF78600B46E1
:10075000FB707B68D3F8C832FB6097F90330002B3D
:100760000BDAFB7803F07F02F9681346DB001344D1
:100770009B000B4416331B780BE0FB7803F07F02E1
:10078000F9681346DB0013449B000B4403F2562325
:100790001B7818461437BD465DF8047B704780B55A
:1007A00084B000AF78600B46FB700023FB7300231E
:1007B000BB737B68D3F8C832FA781146184602F04A
:1007C000D7FA0346FB73FB7B184600F07EF803461E
:1007D000BB73BB7B18461037BD4680BD80B586B065
:1007E00000AFF8607A603B600B46FB720023FB753C
:1007F0000023BB75FB68D3F8C802F97A3B687A68B6
:1008000002F0E1FB0346FB75FB7D184600F05DF846
:100810000346BB75BB7D18461837BD4680BD80B505
:1008200086B000AFF8607A603B600B46FB72002335
:10083000FB750023BB75FB68D3F8C802F97A3B68E7
:100840007A6802F06DFB0346FB75FB7D184600F0ED
:100850003CF80346BB75BB7D18461837BD4680BDC6
:1008600080B582B000AF78600B46FB707B68D3F830
:10087000C832FA781146184602F08DFB0346184636
:100880000837BD4680BD80B483B000AF7860034BAD
:1008900018460C37BD465DF8047B7047840700207E
:1008A00080B483B000AF786000BF0C37BD465DF800
:1008B000047B704780B582B000AF786078680AF03A
:1008C000CFFC00BF0837BD4680BD80B485B000AF07
:1008D0000346FB710023FB73FB79032B16D801A29F
:1008E00052F823F0F5080008FB0800080109000889
:1008F000070900080023FB730BE00323FB7308E0E8
:100900000123FB7305E00323FB7302E00323FB7366
:1009100000BFFB7B18461437BD465DF8047B70476B
:1009200080B500AF0022124912480CF049FF03467F
:10093000002B01D000F00CFD0F490E480CF0A0FF79
:100940000346002B01D000F003FD0C4909480EF0CE
:10095000ADFE0346002B01D000F0FAFC05480CF078
:10096000C5FF0346002B01D000F0F2FC00BF80BDA4
:1009700000000020A4090020A80000205000002052
:1009800080B483B000AF03463960FB713B6812222C
:100990001A80034B18460C37BD465DF8047B704740
:1009A0001C00002080B483B000AF03463960FB71A7
:1009B0003B6804221A80034B18460C37BD465DF88D
:1009C000047B70473000002080B582B000AF034642
:1009D0003960FB71FB79002B05D13A68074908485B
:1009E0000EF062F904E03A68044905480EF05CF93B
:1009F000024B18460837BD4680BD00BF800C002062
:100A0000C00E010880B582B000AF03463960FB71AB
:100A10003A68044904480EF047F9024B1846083773
:100A2000BD4680BD800C0020D80E010880B582B084
:100A300000AF03463960FB713B681A221A8000F050
:100A400043F8024B18460837BD4680BD34000020ED
:100A500080B582B000AF03463960FB71FB79002B93
:100A600005D13A68074908480EF01EF904E03A68D3
:100A7000044905480EF018F9024B18460837BD46E0
:100A800080BD00BF800C0020EC0E010880B582B054
:100A900000AF03463960FB71FB79002B05D13A6842
:100AA000074908480EF000F904E03A68044905488F
:100AB0000EF0FAF8024B18460837BD4680BD00BF5D
:100AC000800C0020F80E010880B584B000AF0F4BF9
:100AD0001B68FB600E4B1B68BB600E4B1B687B608A
:100AE000FA687B681344FB60FB68002B09D008227E
:100AF0000949F86800F014F804220849B86800F0C1
:100B00000FF800BF1037BD4680BD00BF107AFF1F31
:100B1000147AFF1F187AFF1F3600002046000020BD
:100B200080B487B000AFF860B9601346FB71002352
:100B3000FB750023FB7527E0FB681B0F092B0BD807
:100B4000FB681B0FDAB2FB7D5B001946BB680B44E8
:100B50003032D2B21A700AE0FB681B0FDAB2FB7DAA
:100B60005B001946BB680B443732D2B21A70FB687F
:100B70001B01FB60FB7D5B000133BA68134400225C
:100B80001A70FB7D0133FB75FA7DFB799A42D3D352
:100B900000BF00BF1C37BD465DF8047B704700BF37
:100BA00080B500AF0022054905480EF099FD0549C2
:100BB00003480EF0B7FD0023184680BD80160020C4
:100BC000A4090020800E002080B400AF0023184646
:100BD000BD465DF8047B704780B483B000AF034628
:100BE0003960FB711346BB80FB79232B4AD801A2E5
:100BF00052F823F0850C0008850C0008850C0008CD
:100C0000850C0008850C0008850C0008850C000880
:100C1000850C0008850C0008850C0008850C000870
:100C2000850C0008850C0008850C0008850C000860
:100C3000850C0008850C0008850C0008850C000850
:100C4000850C0008850C0008850C0008850C000840
:100C5000850C0008850C0008850C0008850C000830
:100C6000850C0008850C0008850C0008850C000820
:100C7000850C0008850C0008850C0008850C000810
:100C8000850C000800BF002318460C37BD465DF8F0
:100C9000047B704780B582B000AF786039607968B6
:100CA00005480EF03FFD04480EF098FD002318465D
:100CB0000837BD4680BD00BFA409002080B584B0C0
:100CC00000AF78600B467B800023FB730D4BD3F89D
:100CD000BC32BB60BB68D3F81432002B01D00123B7
:100CE0000BE07B881A46796806480EF0F9FC054847
:100CF0000EF035FD0346FB73FB7B18461037BD46EF
:100D000080BD00BFA409002080B487B000AFF860A8
:100D1000B9601346FB710023FB7597F9173018462D
:100D20001C37BD465DF8047B704700BF0FB480B52B
:100D300082B000AF07F114033B603B683A6964215D
:100D40000C480FF06BF978607B68002B0BDD7B683B
:100D5000632B08D87B689BB219460648FFF7AEFFA5
:100D600014200AF07DFA00BF0837BD46BDE8804078
:100D700004B07047281F002080B584B000AF1F4822
:100D80000AF01FFE64211D480AF001FF0346002BF4
:100D900006D11A480BF03CFB03469AB2184B1A8056
:100DA0003B4600221A605A609A60DA6001233B6079
:100DB00001237B600123BB603B4619460F480BF0C3
:100DC0005CFB0E480AF0FDFD64210C480AF0DFFED2
:100DD0000346002B06D109480BF01AFB03469AB2D2
:100DE000084B1A8000233B603B46194603480BF032
:100DF00044FB00BF1037BD4680BD00BF801E0020F1
:100E00008C1F00208E1F002080B582B000AF0AF03A
:100E1000DBF978600421114807F05AFA0346FB70A9
:100E20000F4B1B78DBB2FA789A4213D00D4B1B683C
:100E30007A68D31A322B0DD9094AFB781370084B04
:100E40001B78DBB2002B02D10748FFF76FFF054A82
:100E50007B68136000BF0837BD4680BD00000240BC
:100E600064000020A41F0020080F010880B582B094
:100E700000AF7860786800F044FF034619460348E5
:100E8000FFF754FF00BF0837BD4680BD1C0F0108A7
:100E900080B582B000AF7860786800F032FF03461A
:100EA00019460348FFF742FF00BF0837BD4680BD23
:100EB0002C0F010880B582B000AF7860786800F030
:100EC0002DFF034619460348FFF730FF00BF0837E0
:100ED000BD4680BD3C0F010880B582B000AF786090
:100EE000786800F01BFF034619460348FFF71EFF12
:100EF00000BF0837BD4680BD480F010890B583B0DC
:100F000000AF7860094B1B680133084A1360074B38
:100F10001C68786800F0F5FE03461A46214604482E
:100F2000FFF704FF00BF0C37BD4690BDA81F00208F
:100F3000580F010890B583B000AF7860094B1B686B
:100F40000133084A1360074B1C68786800F0E6FE1E
:100F500003461A4621460448FFF7E8FE00BF0C3757
:100F6000BD4690BDAC1F00207C0F0108F0B585B0D8
:100F700002AF0AF087F800F0BDF800F089F900F040
:100F800067F900F021F9FFF7CBFC00237B6014E048
:100F900000224FF40051424807F0B2F9C8200AF08D
:100FA0005FF901224FF400513D4807F0A9F9C8202C
:100FB0000AF056F97B6801337B607B68022BE7DD22
:100FC0004FF4FA600AF04CF90521364800F0B1FC04
:100FD000354B364A1A60364B364A1A60364B374A1A
:100FE0001A60374B374A1A60374B384A1A60384B09
:100FF000384A1A600F2246212A4800F0DBFD0F22F2
:101000004621284800F0FAFD3348FFF78FFE3348A9
:10101000FFF78CFE3248FFF789FE3248FFF786FE65
:101020004FF4FA700AF01CF900233B60FFF7A4FEAE
:101030002D4B1B882D4A128819461A4800F0AEFC29
:10104000184800F0BFFCFFF7DFFE0AF0BDF80246CB
:101050003B68D31AB3F5FA7F18D9234B1B881C467B
:10106000224B1B881D460F4800F04BFE03461E46D0
:101070000C4800F053FE0346009333462A462146AF
:101080001B48FFF753FE0AF09FF838604FF40051F9
:10109000034807F04EF964200AF0E2F8C6E700BF03
:1010A00000080240901F0020B81F00206D0E0008AD
:1010B000BC1F0020910E0008C01F0020B50E0008C4
:1010C000C41F0020D90E0008D81F0020FD0E000804
:1010D000DC1F0020350F0008A00F0108C80F010811
:1010E000E40F0108041001088C1F00208E1F00204F
:1010F0002C10010880B594B000AF07F12003302216
:10110000002118460EF098FF07F10C0300221A6028
:101110005A609A60DA601A610023BB60284B1B6C2E
:10112000274A43F080531364254B1B6C03F0805314
:10113000BB60BB6800237B60224B1B68214A43F4E1
:10114000404313601F4B1B6803F440437B607B6884
:1011500001233B624FF480337B620223BB634FF475
:101160008003FB6319233B644FF4A8737B6404235F
:10117000BB640723FB6407F12003184604F006FF55
:101180000346002B01D000F0E3F80F23FB6002239D
:101190003B6100237B614FF48053BB610023FB6103
:1011A00007F10C030221184605F068F90346002BED
:1011B00001D000F0CDF800BF5037BD4680BD00BF64
:1011C000003802400070004080B584B000AF3B465C
:1011D00000221A605A609A60DA601B4B1B4A1A6040
:1011E000194B4FF480325A60174B00229A60164B0D
:1011F00000221A61144B00221A76134B002283F846
:101200002020114B0022DA620F4B0022DA600E4BD5
:101210000122DA610C4B002283F830200A4B0122B4
:101220005A6109480AF044FB00233B6001237B60BC
:101230000123BB603B46194603480BF01EF900BF73
:101240001037BD4680BD00BF801E00200020014039
:1012500080B582B000AF00237B600C4B1B6B0B4A48
:1012600043F480031363094B1B6B03F480037B601F
:101270007B6800220021382009F08FFD382009F01A
:10128000A8FD00BF0837BD4680BD00BF0038024042
:1012900080B588B000AF07F10C0300221A605A60D5
:1012A0009A60DA601A610023BB60264B1B6B254AEB
:1012B00043F004031363234B1B6B03F00403BB6075
:1012C000BB6800237B601F4B1B6B1E4A43F08003EF
:1012D00013631C4B1B6B03F080037B607B68002354
:1012E0003B60184B1B6B174A43F001031363154B0C
:1012F0001B6B03F001033B603B6801224FF400517C
:10130000114806F0FDFF4FF40053FB6001233B61E1
:1013100000237B610023BB6107F10C0319460A48D7
:1013200006F06EFD0423FB6000233B6101237B611B
:1013300007F10C031946054806F062FD00BF20378F
:10134000BD4680BD00380240000802400000024057
:1013500080B500AF4FF40051034806F0EAFF642067
:1013600009F07EFFF6E700BF0008024080B400AF3E
:10137000FEE780B400AFFEE780B400AFFEE780B4C4
:1013800000AFFEE780B400AFFEE780B400AF00BF5F
:10139000BD465DF8047B704780B400AF00BFBD461A
:1013A0005DF8047B704780B400AF00BFBD465DF8B8
:1013B000047B704780B500AF09F0F2FE00BF80BD2E
:1013C00080B500AF024808F0FDFC00BF80BD00BF43
:1013D000C81E002080B500AF024800F035FF00BFF6
:1013E00080BD00BFA002002080B483B000AF002306
:1013F0007B60104B5B6C0F4A43F4804353640D4B8E
:101400005B6C03F480437B607B6800233B60094B8B
:101410001B6C084A43F080531364064B1B6C03F0AB
:1014200080533B603B6800BF0C37BD465DF8047BD2
:10143000704700BF0038024080B58AB000AF7860C6
:1014400007F1140300221A605A609A60DA601A6188
:101450007B681B682F4A934258D100233B612E4B77
:101460005B6C2D4A43F4807353642B4B5B6C03F429
:1014700080733B613B690023FB60274B1B6B264A53
:1014800043F001031363244B1B6B03F00103FB6068
:10149000FB6803237B610323BB610023FB6107F12E
:1014A000140319461D4806F0ABFC1D4B1D4A1A607B
:1014B0001B4B00225A601A4B00229A60184B0022E4
:1014C000DA60174B4FF480621A61154B4FF40062DB
:1014D0005A61134B4FF400529A61114B4FF48072D2
:1014E000DA610F4B4FF480321A620D4B00225A62C0
:1014F0000B4808F057F90346002B01D0FFF728FFEF
:101500007B68074A9A63064A7B68936300BF283763
:10151000BD4680BD0020014000380240000002406E
:10152000C81E00201064024080B582B000AF786011
:101530007B681B680A4A93420ED10A4B5B6C094ACE
:1015400023F4807353640321074806F0DDFD7B68B4
:101550009B6B184608F0D4F900BF0837BD4680BD24
:1015600000200140003802400000024080B586B0F3
:1015700000AF7860144A154BD31A7B617B693B61DD
:10158000134B1B68002B02D1114B124A1A60104BEF
:101590001A687B6813443A699A4207D20EF0F8FD44
:1015A00003460C221A604FF0FF3309E0084B1B681A
:1015B000FB60074B1A687B681344054A1360FB689D
:1015C00018461837BD4680BD000002200004000008
:1015D000B01F0020E021002080B400AF00BFBD4656
:1015E0005DF8047B704780B400AF01231846BD4608
:1015F0005DF8047B704780B582B000AF78603960D9
:101600000EF0C6FD034616221A604FF0FF3318464F
:101610000837BD4680BD80B582B000AF78604FF01E
:10162000FF317868FFF7E7FFFEE780B586B000AFCF
:10163000F860B9607A6000237B610AE0AFF3008054
:101640000146BB685A1CBA60CAB21A707B69013382
:101650007B617A697B689A42F0DB7B6818461837B1
:10166000BD4680BD80B586B000AFF860B9607A60D5
:1016700000237B6109E0BB685A1CBA601B781846DE
:10168000AFF300807B6901337B617A697B689A42A2
:10169000F1DB7B6818461837BD4680BD80B483B047
:1016A00000AF78604FF0FF3318460C37BD465DF849
:1016B000047B704780B483B000AF786039603B68CA
:1016C0004FF400525A60002318460C37BD465DF8AF
:1016D000047B704780B483B000AF78600123184664
:1016E0000C37BD465DF8047B704780B485B000AF11
:1016F000F860B9607A60002318461437BD465DF87B
:10170000047B70470EB480B482B000AF78604FF0B5
:10171000FF3318460837BD465DF8047B03B07047B9
:1017200080B582B000AF78600EF032FD03460A2229
:101730001A604FF0FF3318460837BD4680BD80B5AC
:1017400082B000AF78600EF023FD034602221A60DB
:101750004FF0FF3318460837BD4680BD80B483B0D4
:1017600000AF78604FF0FF3318460C37BD465DF888
:10177000047B704780B483B000AF786039603B6809
:101780004FF400525A60002318460C37BD465DF8EE
:10179000047B704780B582B000AF786039600EF08E
:1017A000F7FC03461F221A604FF0FF331846083734
:1017B000BD4680BD80B500AF0EF0EAFC03460B22AB
:1017C0001A604FF0FF33184680BD80B584B000AF7B
:1017D000F860B9607A600EF0DBFC03460C221A60F8
:1017E0004FF0FF3318461037BD4680BD0811010881
:1017F00000000020A0020020A0020020E021002024
:1018000090B488B000AF0446084611461A462346F5
:10181000FB800346BB800B467B8013467B70BA88F7
:101820007B881344DA0F13445B10BB617A88BB8852
:10183000D31A7B617B69002B01D1002329E0FA8850
:10184000BB69D31A3B617B69DA0F13445B10FB6001
:101850003B69642203FB02F2FB6892FBF3F3FB613A
:10186000FB69642B01DD6423FB61FB6913F1640FE9
:1018700002DA6FF06303FB617B785B42FA699A429C
:1018800005DD7B78FA699A4201DA0023FB61FB6986
:101890005BB218462037BD4690BC704780B582B019
:1018A00000AF786039607B68002B02D07B683868B5
:1018B000984700BF0837BD4680BD80B584B000AFF3
:1018C000F8607A603B600B46FB7297F90B30002B97
:1018D000B8BF5B42DBB23A7E9A4214D87B6893F978
:1018E0000030002BB8BF5B42DBB23A7E9A420AD985
:1018F0003B6801221A70F968786AFFF7CFFFF96830
:10190000386AFFF7CBFF97F90B30002BB8BF5B426B
:10191000DBB219463A7E3B7FD31A994202DA3B6822
:1019200000221A707B68FA7A1A7000BF1037BD4621
:1019300080BD80B483B000AF78600B46FB707B68DD
:1019400000221A807B6800225A807B6800221A716C
:101950007B6800225A717B6800221A747B6800221F
:101960005A747B6800229A747B680022DA747B6860
:10197000FA789A717B6800221A817B6840F6FF72C0
:101980005A817B6800229A817B6840F6FF72DA8177
:1019900000BF0C37BD465DF8047B704780B483B050
:1019A00000AF78600B467B8013463B807B687A886B
:1019B0001A807B683A885A8000BF0C37BD465DF8B4
:1019C000047B7047F0B589B004AF78607B681B7901
:1019D000FB737B685B79BB737B6818887B681989AC
:1019E0007B685A897B689B79FFF70AFF03461A4692
:1019F0007B681A717B6858887B6899897B68DA896B
:101A00007B689B79FFF7FCFE03461A467B685A7198
:101A10007B6893F9043097F90F209A4206D17B68CE
:101A200093F9053097F90E209A4205D03D4B1B687B
:101A300079681846FFF732FF7B6893F904407B68AA
:101A400003F110057B6803F11206374B1B78374A08
:101A5000127837490968374800680390029101926B
:101A6000009333462A4621467868FFF726FF7B68B5
:101A700093F905407B6803F111057B6803F11306B8
:101A80002D4B1B782D4A12782D4909682D48006886
:101A9000039002910192009333462A4621467868CA
:101AA000FFF70BFF7B6893F90430002B05DD264B15
:101AB0001B6879681846FFF7F1FE7B6893F90430DC
:101AC000002B05DA214B1B6879681846FFF7E6FE04
:101AD0007B6893F90530002B05DD1D4B1B68796889
:101AE0001846FFF7DBFE7B6893F90530002B05DA1B
:101AF000184B1B6879681846FFF7D0FE7B6893F98E
:101B00000430002B0AD17B6893F90530002B05D1F6
:101B1000114B1B6879681846FFF7C0FE00BF1437E9
:101B2000BD46F0BDCC1F00206C0000206D000020E1
:101B3000D01F0020D81F00206E0000206F00002062
:101B4000D41F0020DC1F0020B81F0020BC1F002075
:101B5000C01F0020C41F0020C81F002080B485B013
:101B600000AFF860B9607A603B600C4AFB681360B4
:101B70000B4ABB6813600B4A7B6813600A4A3B68D8
:101B800013600A4ABB691360094AFB69136000BF0E
:101B90001437BD465DF8047B704700BFB81F0020B6
:101BA000BC1F0020C01F0020C41F0020C81F002031
:101BB000CC1F002080B483B000AF78600B46FB7070
:101BC0001346BB70FB78642B28BF6423DAB2094B41
:101BD0001A70BB78322B28BF3223DAB2064B1A7048
:101BE0007B6800229A7400BF0C37BD465DF8047B09
:101BF000704700BF6C0000206D00002080B483B0EF
:101C000000AF78600B46FB701346BB70FB78642B0B
:101C100028BF6423DAB2094B1A70BB78322B28BF75
:101C20003223DAB2064B1A707B680022DA7400BFE6
:101C30000C37BD465DF8047B704700BF6E00002086
:101C40006F00002080B485B000AFF86008461146F0
:101C50001A4603467B810B463B811346FB80FB689B
:101C60007A891A81FB683A895A81FB68FA889A81D5
:101C7000FB683A8BDA8100BF1437BD465DF8047B00
:101C8000704780B485B000AF78607B681B88FB60CC
:101C90007B685B88BB60FB68B3F5FA6FB8BF4FF435
:101CA000FA639BB2A3F5FA639AB27B681A81FB6868
:101CB00040F62F029342A8BF13469BB203F5FA6386
:101CC0009AB27B685A81BB68B3F5FA6FB8BF4FF41C
:101CD000FA639BB2A3F5FA639AB27B689A81BB68F8
:101CE00040F62F029342A8BF13469BB203F5FA6356
:101CF0009AB27B68DA8100BF1437BD465DF8047B79
:101D0000704780B483B000AF78607B6893F904308B
:101D100018460C37BD465DF8047B704780B483B02D
:101D200000AF78607B6893F9053018460C37BD46E4
:101D30005DF8047B704780B483B000AF78607B6847
:101D40001B8818460C37BD465DF8047B704780B48D
:101D500083B000AF78607B685B8818460C37BD465F
:101D60005DF8047B704780B483B000AF78607B6817
:101D70009B7C18460C37BD465DF8047B704780B4E9
:101D800083B000AF78607B68DB7C18460C37BD46BB
:101D90005DF8047B704780B483B000AF78607B68E7
:101DA00000229A7400BF0C37BD465DF8047B704773
:101DB00080B483B000AF78607B680022DA7400BF23
:101DC0000C37BD465DF8047B704700BF80B400AFA0
:101DD000064BD3F88830054A43F47003C2F88830C4
:101DE00000BFBD465DF8047B704700BF00ED00E01A
:101DF00080B487B000AF344B9B6803F00C033B61A9
:101E00003B69082B11D03B69082B44D83B69002B58
:101E100003D03B69042B04D03DE02C4B2C4A1A60C4
:101E20003DE02A4B2B4A1A6039E0274B5B689B0D3B
:101E300003F00103FB60244B5B6803F03F03BB60CE
:101E4000FB68002B0CD0234ABB68B2FBF3F31E4A9D
:101E500052689209C2F3080202FB03F37B610BE0B4
:101E60001B4ABB68B2FBF3F3174A52689209C2F3EC
:101E7000080202FB03F37B61134B5B681B0C03F04E
:101E8000030301335B007B607A697B68B2FBF3F389
:101E90000E4A136003E00D4B0D4A1A6000BF0A4B57
:101EA0009B681B0903F00F030B4AD35C3B61074B94
:101EB0001A683B6922FA03F3044A136000BF1C3717
:101EC000BD465DF8047B704700380240700000207A
:101ED0000024F40040787D015C10010880B586B0D4
:101EE00002AF78607B68002B01D1012301E17B68A0
:101EF0001B68BB607B6893F89534DBB2002B06D17E
:101F00007B68002283F894247868FEF781F97B6867
:101F1000032283F89524BB68B3F1A04F02D17B68FC
:101F200000229A717B681B68184601F034FD7B68BB
:101F300018687B681A7C8DF8002004330ECB01F002
:101F400013FC0346002B05D07B68022283F89524FE
:101F50000123CEE07B681B680021184601F02CFDB0
:101F60000346002B05D07B68022283F895240123C9
:101F7000BFE00023FB734AE0FA7B79681346DB007D
:101F800013449B000B44153301221A70FA7B7968C5
:101F90001346DB0013449B000B441433FA7B1A7086
:101FA000FA7BFB7B98B279681346DB0013449B00F5
:101FB0000B442E3302461A80FA7B79681346DB0005
:101FC00013449B000B44183300221A70FA7B796883
:101FD0001346DB0013449B000B441C3300221A60A1
:101FE000FA7B79681346DB0013449B000B442033D3
:101FF00000221A60FA7B79681346DB0013449B00C9
:102000000B44243300221A60FB7B0133FB737B6893
:102010001B79FA7B9A42AFD30023FB7344E0FA7B2F
:1020200079681346DB0013449B000B4403F25523ED
:1020300000221A70FA7B79681346DB0013449B0078
:102040000B4403F51573FA7B1A70FA7B7968134613
:10205000DB0013449B000B4403F5167300221A7037
:10206000FA7B79681346DB0013449B000B4403F5AD
:10207000177300221A60FA7B79681346DB00134459
:102080009B000B4403F5187300221A60FA7B7968F1
:102090001346DB0013449B000B4403F51973002225
:1020A0001A60FB7B0133FB737B681B79FA7B9A42D6
:1020B000B5D37B6818687B681A7C8DF800200433E0
:1020C0000ECB01F0C5FC0346002B05D07B68022235
:1020D00083F8952401230CE07B6800225A747B6806
:1020E000012283F895247B681B68184602F098FE4D
:1020F000002318461037BD4680BD80B582B000AFC2
:1021000078607B68002B01D1012315E07B680322F6
:1021100083F895247B681B68184602F0EBFD0346A4
:10212000002B01D0012307E07868FEF7C5F87B6833
:10213000002283F89524002318460837BD4680BD49
:1021400080B483B000AF786000BF0C37BD465DF847
:10215000047B704780B483B000AF786000BF0C3759
:10216000BD465DF8047B704780B584B000AF7860F1
:102170007B681B68FB607B6893F89434012B01D16A
:10218000022322E07B68012283F89424FB68DB6849
:1021900003F04003002B09D07B685B7B012B05D14A
:1021A000FB689B6B43F48032FB689A637B681B6817
:1021B000184601F0DFFB7B681B68184602F00FFE33
:1021C0007B68002283F89424002318461037BD460C
:1021D00080BD80B584B000AF78607B681B68FB6011
:1021E0007B6893F89434012B01D1022328E07B68AB
:1021F000012283F894247B681B68184601F0CBFB0E
:102200007B681B68184602F00BFE7B681B68102178
:10221000184601F081FDFB68DB6803F04003002BEA
:1022200009D07B685B7B012B05D1FB689B6B23F49A
:102230008032FB689A637B68002283F89424002331
:1022400018461037BD4680BD90B58DB000AF7860A0
:102250007B681B683B623B6AFB617B681B681846B6
:1022600002F0C4FE0346002B40F08C847B681B68A0
:10227000184602F0F6FD0346002B00F08284FB694D
:1022800003F500639B681B0AC3F30D027B68C3F868
:10229000D4247B681B68184602F0E3FD034603F074
:1022A0000203022B07D17B681B685A697B681B6895
:1022B00002F002025A617B681B68184602F0D1FDE9
:1022C000034603F01003102B61D17B681B689A69E9
:1022D0007B681B6822F010029A613B6A1B6ABB6133
:1022E000BB6903F00F021346DB0013449B0003F5A8
:1022F00014737A68134404337B61BB6903F4F013ED
:10230000B3F5802F24D1BA6947F6F0731340002B40
:1023100035D07B69D968BB691B099BB2C3F30A033B
:102320009BB21A46386A02F0B9FB7B69DA68BB696E
:102330001B09C3F30A031A447B69DA607B695A6993
:10234000BB691B09C3F30A031A447B695A6116E08F
:10235000BB6903F4F013B3F5402F10D17B6803F28F
:102360009C4308221946386A02F098FB7B695A6937
:10237000BB691B09C3F30A031A447B695A617B6872
:102380001B689A697B681B6842F010029A617B683F
:102390001B68184602F065FD034603F40023B3F5FD
:1023A000002F40F0A78000237B627B681B681846E3
:1023B00002F08BFDB86299E0BB6A03F00103002BC9
:1023C00000F08E807B681B687A6AD2B2114618468C
:1023D00002F0AFFD38613B6903F00103002B0CD024
:1023E0007B6A5A01FB69134403F530631A460123E3
:1023F0009360796A786801F01AF83B6903F0080382
:10240000002B0CD07B6A5A01FB69134403F530633F
:102410001A4608239360796A786801F0EFF83B69FF
:1024200003F01003002B08D07B6A5A01FB691344A8
:1024300003F530631A46102393603B6903F00203EF
:10244000002B30D03B6A5B6903F08003802B09D1FD
:10245000FB6903F500635B68FA6902F5006243F407
:10246000806353607A6A1346DB0013449B0003F5D4
:1024700014737A68134404337B617B69DB78012B26
:1024800008D17B690022DA707B6ADBB21946786872
:10249000FDF7DAFF7B6A5A01FB69134403F53063E9
:1024A0001A46022393603B6903F02003002B08D0F7
:1024B0007B6A5A01FB69134403F530631A462023F3
:1024C00093603B6903F40053002B09D07B6A5A01E7
:1024D000FB69134403F530631A464FF400539360CD
:1024E0007B6A01337B62BB6A5B08BB62BB6A002B01
:1024F0007FF462AF7B681B68184602F0B2FC0346AB
:1025000003F48023B3F5802F40F0DB807B681B68E9
:10251000184602F0F4FCB86200237B62CDE0BB6A8F
:1025200003F00103002B00F0C2807B681B687A6A0D
:10253000D2B21146184602F01AFD38613B6903F029
:102540000103002B57D07B6A03F00F03012202FA2C
:1025500003F3FB60FB6903F500635A6BFB68DB4325
:10256000F96901F5006113404B637B6A5A01FB690D
:10257000134403F510631A46012393607B689B792B
:10258000012B32D179687A6A1346DB0013449B0031
:102590000B442033196878687A6A1346DB001344C9
:1025A0009B0003441C331B68194478687A6A1346FD
:1025B000DB0013449B000344203319607B6A002B2B
:1025C00013D179687A6A1346DB0013449B000B44ED
:1025D00024331B68002B08D17B6818687B6803F2E2
:1025E0009C431A46012102F032FD7B6ADBB2194698
:1025F0007868FDF7AEFE3B6903F00803002B08D0B6
:102600007B6A5A01FB69134403F510631A460823D9
:1026100093603B6903F01003002B08D07B6A5A01DA
:10262000FB69134403F510631A46102393603B695A
:1026300003F04003002B08D07B6A5A01FB69134466
:1026400003F510631A46402393603B6903F00203CD
:10265000002B23D0796A386A01F05EFB7A6A134650
:10266000DB0013449B0010337A68134404337B610E
:102670007B69DB78012B08D17B690022DA707B6AE9
:10268000DBB219467868FDF7F1FE7B6A5A01FB69F7
:10269000134403F510631A46022393603B6903F069
:1026A0008003002B03D0796A786800F034FE7B6ADF
:1026B00001337B62BB6A5B08BB62BB6A002B7FF4A1
:1026C0002EAF7B681B68184602F0CBFB034603F075
:1026D0000043B3F1004F22D1FB6903F500635B684F
:1026E000FA6902F5006223F0010353607B6893F8F6
:1026F000CC34012B08D17B68002283F8CC24002144
:10270000786801F019F802E07868FDF78FFE7B68C1
:102710001B685A697B681B6802F000425A617B683B
:102720001B68184602F09DFB034603F40063B3F5F3
:10273000006F12D1FB6903F500639B6803F001038E
:10274000012B02D17868FDF74AFE7B681B685A6945
:102750007B681B6802F400625A617B681B6818463C
:1027600002F07FFB034603F48053B3F5805F40F033
:10277000B780FB6903F500635B68FA6902F50062E4
:1027800023F0010353607B681B681021184601F099
:10279000C3FA0023FB6246E0FB6A5A01FB6913445B
:1027A00003F510631A464FF67F339360FB6A5A01B4
:1027B000FB69134403F510631B68FA6A5101FA6957
:1027C0000A4402F5106223F400131360FB6A5A01F5
:1027D000FB69134403F530631A464FF67F33936069
:1027E000FB6A5A01FB69134403F530631B68FA6AFC
:1027F0005101FA690A4402F5306223F400131360B0
:10280000FB6A5A01FB69134403F530631B68FA6ADB
:102810005101FA690A4402F5306243F00063136023
:10282000FB6A0133FB627B681B791A46FB6A9342A1
:10283000B2D3FB6903F50063DB69FA6902F5006254
:1028400043F00113D3617B68DB7B002B16D0FB695F
:1028500003F50063D3F88430FA6902F5006243F0AF
:102860000B03C2F88430FB6903F500635B6CFA6903
:1028700002F5006243F00B03536415E0FB6903F5B6
:1028800000635B69FA6902F5006243F4005343F0A8
:102890002B035361FB6903F500631B69FA6902F5B9
:1028A000006243F00B031361FB6903F500631B68CF
:1028B000FA6902F5006223F4FE6313607B6818680E
:1028C0007B6899797B6803F29C431A4602F0BFFB50
:1028D0007B681B685A697B681B6802F480525A61E6
:1028E0007B681B68184602F0BCFA034603F40053E9
:1028F000B3F5005F23D17B681B68184602F084FBA8
:102900007B681B68184601F080FA03461A467B680C
:10291000DA717B681C6803F0DBFF01467B68DB79BA
:102920001A46204600F084FF7868FDF73AFD7B6880
:102930001B685A697B681B6802F400525A617B6805
:102940001B68184602F08DFA034603F00803082BB3
:102950000AD17868FDF717FD7B681B685A697B68A8
:102960001B6802F008025A617B681B68184602F077
:1029700078FA034603F08003802B23D13B6A9B69DE
:1029800023F080023B6A9A6101237B6214E079683C
:102990007A6A1346DB0013449B000B4403F257236F
:1029A0001B78012B05D17B6ADBB21946786800F0F1
:1029B000FDFB7B6A01337B627B681B791A467B6A6D
:1029C0009342E4D37B681B68184602F04AFA034638
:1029D00003F48013B3F5801F3CD101237B622BE00D
:1029E0007B6A5A01FB69134403F510631B68BB61E2
:1029F00079687A6A1346DB0013449B000B44183352
:102A00001B78012B15D1BB69002B12DA79687A6A21
:102A10001346DB0013449B000B44173301221A704A
:102A20007B6ADBB263F07F03DBB21946786800F0A3
:102A3000BDFB7B6A01337B627B681B791A467B6A2C
:102A40009342CDD37B681B685A697B681B6802F48C
:102A500080125A617B681B68184602F002FA03462E
:102A600003F40013B3F5001F56D101237B6245E048
:102A70007B6A5A01FB69134403F530631B68BB6131
:102A800079687A6A1346DB0013449B000B4403F514
:102A900016731B78012B2ED1BB69002B2BDABB6977
:102AA0001A0C7B68D3F8D434534003F00103002B95
:102AB00021D179687A6A1346DB0013449B000B44EA
:102AC00003F2572301221A703B6A9B6943F080028C
:102AD0003B6A9A613B6A5B6903F08003002B0AD171
:102AE000FB6903F500635B68FA6902F5006243F471
:102AF0000073536008E07B6A01337B627B681B795B
:102B00001A467B6A9342B3D37B681B685A697B6819
:102B10001B6802F400125A617B681B68184602F0B9
:102B2000A0F9034603F08043B3F1804F0AD17868DF
:102B3000FDF7AEFC7B681B685A697B681B6802F076
:102B400080425A617B681B68184602F08AF9034686
:102B500003F00403042B15D17B681B685B68BB6121
:102B6000BB6903F00403002B02D07868FDF79EFCDC
:102B70007B681B6859687B681B68BA690A435A609E
:102B800000E000BF3437BD4690BD80B485B000AFD3
:102B900078607B681B68FB60FB68B3F1A04F04D1D1
:102BA000074B4FF480225A6103E0054B4FF480122B
:102BB0005A6100BF1437BD465DF8047B704700BF03
:102BC000003C014080B483B000AF78600B46FB70DE
:102BD00000BF0C37BD465DF8047B704780B483B0FE
:102BE00000AF78600B46FB7000BF0C37BD465DF848
:102BF000047B704780B483B000AF786000BF0C37AF
:102C0000BD465DF8047B704780B483B000AF786048
:102C100000BF0C37BD465DF8047B704780B483B0BD
:102C200000AF786000BF0C37BD465DF8047B70478D
:102C300080B483B000AF786000BF0C37BD465DF84C
:102C4000047B704780B483B000AF786000BF0C375E
:102C5000BD465DF8047B704780B483B000AF7860F8
:102C60000B46FB7000BF0C37BD465DF8047B704718
:102C700080B483B000AF78600B46FB7000BF0C37A8
:102C8000BD465DF8047B704780B483B000AF7860C8
:102C900000BF0C37BD465DF8047B704780B483B03D
:102CA00000AF786000BF0C37BD465DF8047B70470D
:102CB00080B584B000AF78607B681B68FB607B6880
:102CC00093F89434012B01D102231DE07B6801228B
:102CD00083F89424FB68DB6803F04003002B09D0E1
:102CE0007B685B7B012B05D1FB689B6B43F48032D7
:102CF000FB689A637B681B68184602F070F87B6873
:102D0000002283F89424002318461037BD4680BD66
:102D100080B584B000AF78607B681B68FB607B681F
:102D200093F89434012B01D102231DE07B6801222A
:102D300083F894247B681B68184602F071F8FB68DE
:102D4000DB6803F04003002B09D07B685B7B012B21
:102D500005D1FB689B6B23F48032FB689A637B6828
:102D6000002283F89424002318461037BD4680BD06
:102D700080B582B000AF78600B46FB707B6893F83B
:102D80009434012B01D1022312E07B68012283F8E5
:102D900094247B68FA785A747B681B68FA78114629
:102DA000184601F0F6FF7B68002283F89424002384
:102DB00018460837BD4680BD80B584B000AF786046
:102DC000084611461A460346FB700B463B801346E5
:102DD000BB700023FB7297F90330002B0FDAFB78EE
:102DE00003F00F021346DB0013449B0010337A6894
:102DF00013440433FB60FB6801225A700FE0FB7838
:102E000003F00F021346DB0013449B0003F5147319
:102E10007A6813440433FB60FB6800225A70FB7825
:102E200003F00F03DAB2FB681A703B88C3F30A029F
:102E3000FB689A60FB68BA781A71FB685B78002BB4
:102E400004D0FB681B781A46FB685A83BB78022BB8
:102E500002D1FB6800225A717B6893F89434012BED
:102E600001D102230EE07B68012283F894247B6861
:102E70001B68F968184600F0EDFF7B68002283F8B4
:102E80009424FB7A18461037BD4680BD80B584B0C7
:102E900000AF78600B46FB7097F90330002B0FDA18
:102EA000FB7803F00F021346DB0013449B00103342
:102EB0007A6813440433FB60FB6801225A700FE008
:102EC000FB7803F00F021346DB0013449B0003F56D
:102ED00014737A6813440433FB60FB6800225A7051
:102EE000FB7803F00F03DAB2FB681A707B6893F883
:102EF0009434012B01D102230EE07B68012283F878
:102F000094247B681B68F968184601F0B2F87B6866
:102F1000002283F89424002318461037BD4680BD54
:102F200080B586B000AFF8607A603B600B46FB72FC
:102F3000FB7A03F00F021346DB0013449B0003F5FA
:102F40001473FA68134404337B617B697A68DA602E
:102F50007B693A681A617B6900225A617B690022A9
:102F60005A70FB7A03F00F03DAB27B691A70FB68C0
:102F70009B79012B02D17A687B69DA61FB6818685A
:102F8000FB689B791A46796901F002FA002318461A
:102F90001837BD4680BD80B483B000AF78600B4663
:102FA000FB70FB7803F00F0279681346DB001344D3
:102FB0009B000B4403F51A731B6818460C37BD467B
:102FC0005DF8047B704780B586B000AFF8607A602A
:102FD0003B600B46FB72FB7A03F00F021346DB00EB
:102FE00013449B001033FA68134404337B617B69FC
:102FF0007A68DA607B693A681A617B6900225A61F3
:103000007B6901225A70FB7A03F00F03DAB27B6905
:103010001A70FB689B79012B02D17A687B69DA61AF
:10302000FB681868FB689B791A46796901F0B0F96A
:10303000002318461837BD4680BD80B584B000AF68
:1030400078600B46FB70FB7803F00F037A68127907
:10305000934201D901234FE097F90330002B0FDA97
:10306000FB7803F00F021346DB0013449B00103380
:103070007A6813440433FB60FB6801225A700DE048
:10308000FA781346DB0013449B0003F514737A6847
:1030900013440433FB60FB6800225A70FB68012272
:1030A0009A70FB7803F00F03DAB2FB681A707B6842
:1030B00093F89434012B01D102231DE07B68012297
:1030C00083F894247B681B68F968184601F03EFD7C
:1030D000FB7803F00F03002B09D17B6818687B682D
:1030E00099797B6803F29C431A4601F0B0FF7B6834
:1030F000002283F89424002318461037BD4680BD73
:1031000080B584B000AF78600B46FB70FB7803F0AD
:103110000F037A681279934201D9012342E097F9AB
:103120000330002B0FDAFB7803F00F021346DB00AD
:1031300013449B0010337A6813440433FB60FB682C
:1031400001225A700FE0FB7803F00F021346DB00F8
:1031500013449B0003F514737A6813440433FB6033
:10316000FB6800225A70FB6800229A70FB7803F01B
:103170000F03DAB2FB681A707B6893F89434012B62
:1031800001D102230EE07B68012283F894247B683E
:103190001B68F968184601F047FD7B68002283F838
:1031A0009424002318461037BD4680BD80B584B0F6
:1031B00000AF78600B46FB7097F90330002B0CDAF8
:1031C000FB7803F00F021346DB0013449B0010331F
:1031D0007A6813440433FB600CE0FB7803F00F02C1
:1031E0001346DB0013449B0003F514737A68134401
:1031F0000433FB607B681B68F968184601F066FBC6
:103200000346FB72FB7A18461037BD4680BD80B579
:1032100082B000AF78600B46FB707B6893F8943403
:10322000012B01D102231BE07B68012283F8942447
:1032300097F90330002B09DA7B681A68FB7803F0F2
:103240000F031946104600F067FD04E07B681B6819
:10325000184600F093FD7B68002283F89424002335
:1032600018460837BD4680BD80B582B000AF786093
:103270007B681B68184602F04BFE03461846083769
:10328000BD4680BD80B582B000AF78607B681B68AA
:10329000184602F05CFE034618460837BD4680BD5E
:1032A00080B483B000AF78607B6893F89534DBB26C
:1032B00018460C37BD465DF8047B704780B485B076
:1032C00000AF78600B46FB707B681B68FB60FB6897
:1032D000BB60FB78013B042B15D8BB6803F500638A
:1032E0005B68BA6802F5006223F070035360BB6844
:1032F00003F500635A68FB781B01B96801F50061AA
:1033000013434B6000E000BF002318461437BD464E
:103310005DF8047B704780B58AB002AF7860396091
:103320007B681B687B617B693B613A681346DB0005
:1033300013449B0010337A6813440433FB60FB682A
:103340005A69FB681B699A4201D901236BE0FB684B
:103350001A69FB685B69D31AFB61FB689B68FA69B1
:103360009A4202D9FB689B68FB61FB6903339B08A7
:10337000BB612AE0FB681A69FB685B69D31AFB61D1
:10338000FB689B68FA699A4202D9FB689B68FB61FB
:10339000FB6903339B08BB61FB68D9683B68DAB201
:1033A000FB6998B27B689B7900930346786901F0CA
:1033B00037FBFB68DA68FB691A44FB68DA60FB6874
:1033C0005A69FB691A44FB685A613B685A013B69B8
:1033D000134403F510639B699BB2BA699A4209D8FA
:1033E000FB685A69FB681B699A4203D2FB681B6938
:1033F000002BBFD1FB681A69FB685B699A4211D840
:103400003B6803F00F03012202FA03F3BB603B6940
:1034100003F500635A6BBB68DB43396901F5006152
:1034200013404B63002318462037BD4680BD80B54E
:1034300088B000AF786039607B681B68FB61FB690E
:10344000BB61FB693C3304331B687B613B685A01F9
:10345000BB69134403F530639B683B617B689B79D0
:10346000012B7BD13B6903F00803002B15D07B694E
:10347000604A934240F2B9803B6903F40043002B59
:1034800000F0B3803B685A01BB69134403F5306315
:103490001A464FF400439360A7E03B6903F0200312
:1034A000002B09D03B685A01BB69134403F5306314
:1034B0001A462023936098E03B6903F02803002B11
:1034C00040F093807B694B4A93420FD93B6903F4E8
:1034D0000043002B0AD03B685A01BB69134403F533
:1034E00030631A464FF4004393607EE03A68134617
:1034F000DB0013449B0003F514737A681344043310
:10350000FB60FB681A6A3B685901BB690B4403F511
:1035100030631B69C3F31203D21AFB685A613B681C
:10352000002B14D1FB681B69002B09D17B6818683C
:103530007B6803F29C431A46012101F088FD06E0F6
:10354000FB68DA68FB685B691A44FB68DA603B6811
:10355000DBB219467868FCF7E1FE46E07B69264A53
:10356000934224D13B6903F40043002B0AD03B680B
:103570005A01BB69134403F530631A464FF4004304
:10358000936032E03B6903F02003002B08D03B68D6
:103590005A01BB69134403F530631A462023936034
:1035A0003B68DBB219467868FCF7B8FE1DE03B6863
:1035B000002B14D179683A681346DB0013449B0052
:1035C0000B4403F519731B68002B08D17B6818683E
:1035D0007B6803F29C431A46002101F038FD3B68EA
:1035E000DBB219467868FCF799FE002318462037AD
:1035F000BD4680BD0A30544F0A31544F80B586B065
:1036000000AF786039607B681B687B617B693B61D8
:103610007B693C3304331B68FB603B685A013B69A0
:10362000134403F530639B68BB60FB68154A934203
:103630000ED9BB6803F40043002B09D03B685A0144
:103640003B69134403F530631A464FF4004393601B
:103650007868FCF751FEFB680A4A93420CD97B68F4
:103660009B79012B08D17B6818687B6803F29C4327
:103670001A46012101F0EBFC002318461837BD461D
:1036800080BD00BF0A30544F80B485B000AF786071
:103690000B46FB7013463B807B681B685B6ABB6014
:1036A000FB78002B07D13B8819047B681B68BA683C
:1036B0000A439A6228E07B681B689B6A1B0CBA6805
:1036C0001344BB600023FB730DE07B681A68FB7B2F
:1036D00040339B0013445B681B0CBA681344BB6007
:1036E000FB7B0133FB73FA7BFB78013B9A42ECD303
:1036F0003B8818047B681968FB78013BBA68024371
:1037000040339B000B445A60002318461437BD46D3
:103710005DF8047B704780B483B000AF78600B46DF
:103720007B807B681B687A885A62002318460C37B6
:10373000BD465DF8047B704780B483B000AF78600D
:103740000B46FB7000BF0C37BD465DF8047B70472D
:1037500080B483B000AF78600B46FB7000BF0C37BD
:10376000BD465DF8047B704784B080B584B000AF7F
:10377000786007F11C0080E80E0097F82130012BDB
:1037800023D17B689B6B23F480327B689A637B68D0
:10379000DB6823F4840323F040037A68D3607B68FA
:1037A000DB6823F440127B68DA6097F82830012B3D
:1037B00005D17B68DB6843F480127B68DA60786847
:1037C00001F0A2FC0346FB731BE07B68DB6843F05F
:1037D00040027B68DA60786801F096FC0346FB7370
:1037E00097F82530002B06D17B689B6B43F4803221
:1037F0007B689A6305E07B689B6B23F480327B686F
:103800009A63BB7F012B0BD17B689B6843F0060258
:103810007B689A607B689B6843F020027B689A60B3
:10382000FB7B18461037BD46BDE8804004B07047AA
:1038300080B487B000AFF860B9601346FB71FB79C4
:10384000022B65D1BB68414A934206D9BB68404A06
:10385000934202D20F237B6162E0BB683C4A9342F1
:1038600006D3BB683B4A934202D20E237B6157E0EA
:10387000BB68384A934206D3BB68374A934202D2A8
:103880000D237B614CE0BB68334A934206D3BB688F
:10389000324A934202D80C237B6141E0BB682F4A35
:1038A000934206D9BB682E4A934202D80B237B6110
:1038B00036E0BB682A4A934206D9BB68294A93423C
:1038C00002D80A237B612BE0BB68264A934206D9C3
:1038D000BB68254A934202D209237B6120E0BB6882
:1038E000214A934206D3BB68204A934202D8082358
:1038F0007B6115E0BB681D4A934206D9BB681C4A30
:10390000934202D207237B610AE006237B6107E032
:10391000FB79002B02D109237B6101E009237B6144
:10392000FB68DB6823F47052FB68DA60FB68DA68D6
:103930007B699B0203F470531A43FB68DA6000232F
:1039400018461C37BD465DF8047B7047BFACD800F5
:10395000C0E1E4000024F400807306019F491A01CD
:10396000FF2C31013FA44C0100366E011FABA601B4
:103970000048E80180B483B000AF78607B689B6842
:1039800043F001027B689A60002318460C37BD465D
:103990005DF8047B704780B483B000AF78607B68CB
:1039A0009B6823F001027B689A60002318460C375D
:1039B000BD465DF8047B704780B584B000AF786089
:1039C0000B46FB700023FB607B68DB6823F0C04282
:1039D0007B68DA60FB78012B15D17B68DB6843F0EC
:1039E00000527B68DA600A2007F03AFCFB680A3371
:1039F000FB60786801F0FAFA0346012B1ED0FB68E1
:103A0000C72BF0D91AE0FB78002B15D17B68DB6857
:103A100043F080427B68DA600A2007F021FCFB68F3
:103A20000A33FB60786801F0E1FA0346002B05D009
:103A3000FB68C72BF0D901E0012305E0FB68C82B28
:103A400001D1012300E0002318461037BD4680BD98
:103A500084B080B586B000AF786007F1240080E8BC
:103A60000E000023FB757B68FB6000233B6109E0CF
:103A70007A683B6940339B00134400225A603B69DB
:103A800001333B613B690E2BF2D997F82E30002BA6
:103A90001CD1FB6803F500635B68FA6802F50062FD
:103AA00043F0020353607B689B6B43F400127B6816
:103AB0009A637B689B6B23F400227B689A637B6824
:103AC0009B6B23F480227B689A630BE07B689B6B83
:103AD00023F400127B689A637B689B6B43F400229B
:103AE0007B689A63FB6803F560631A4600231360E2
:103AF00097F82930012B0DD197F82730002B04D1EE
:103B00000021786800F068F908E00121786800F089
:103B100063F903E00321786800F05EF9102178680A
:103B200000F0FAF80346002B01D00123FB757868FA
:103B300000F024F90346002B01D00123FB75FB683C
:103B400003F500631A4600231361FB6803F5006365
:103B50001A4600235361FB6803F500631A460023ED
:103B6000D36100233B6143E03B695A01FB68134486
:103B700003F510631B6803F00043B3F1004F18D145
:103B80003B69002B0AD13B695A01FB68134403F5DA
:103B900010631A464FF00063136013E03B695A014B
:103BA000FB68134403F510631A464FF0904313600B
:103BB00008E03B695A01FB68134403F510631A4699
:103BC000002313603B695A01FB68134403F510633B
:103BD0001A46002313613B695A01FB68134403F53D
:103BE00010631A464FF67F3393603B6901333B61A4
:103BF00097F824301A463B699342B5D300233B61C2
:103C000043E03B695A01FB68134403F530631B68CA
:103C100003F00043B3F1004F18D13B69002B0AD1E8
:103C20003B695A01FB68134403F530631A464FF0B1
:103C30000063136013E03B695A01FB68134403F50A
:103C400030631A464FF09043136008E03B695A0115
:103C5000FB68134403F530631A46002313603B6985
:103C60005A01FB68134403F530631A4600231361BD
:103C70003B695A01FB68134403F530631A464FF65B
:103C80007F3393603B6901333B6197F824301A46D8
:103C90003B699342B5D3FB6803F500631B69FA687F
:103CA00002F5006223F4807313617B6800229A613D
:103CB0007B686FF080425A6197F82630002B05D15F
:103CC0007B689B6943F010027B689A617B689A6904
:103CD000104B13437A68936197F82A30002B05D074
:103CE0007B689B6943F008027B689A6197F82E30E5
:103CF000012B07D17B689B6943F0804343F00403A9
:103D00007A689361FB7D18461837BD46BDE8804050
:103D100004B0704700383C8080B485B000AF786054
:103D200039600023FB60FB680133FB60FB68B3F183
:103D3000706F01D903231BE07B681B69002BF2DA4B
:103D40000023FB603B689B0143F020027B681A6103
:103D5000FB680133FB60FB68B3F1706F01D903238B
:103D600006E07B681B6903F02003202BF0D00023C2
:103D700018461437BD465DF8047B704780B485B0A3
:103D800000AF78600023FB60FB680133FB60FB68D9
:103D9000B3F1706F01D9032318E07B681B69002B16
:103DA000F2DA0023FB607B6810221A61FB680133A2
:103DB000FB60FB68B3F1706F01D9032306E07B68F9
:103DC0001B6903F01003102BF0D0002318461437A2
:103DD000BD465DF8047B704780B485B000AF786065
:103DE0000B46FB707B68FB60FB6803F500631A6899
:103DF000FB78F96801F5006113430B600023184656
:103E00001437BD465DF8047B704780B487B000AFBF
:103E100078607B683B613B6903F500639B6803F056
:103E20000603FB60FB68002B02D10023FB750AE050
:103E3000FB68022B02D0FB68062B02D10223FB7524
:103E400001E00F23FB75FB7D18461C37BD465DF86E
:103E5000047B704780B485B000AF786039607B68C0
:103E6000FB603B681B78BB603B685B78012B3AD1F9
:103E7000FB6803F50063DA693B681B7803F00F0306
:103E8000012101FA03F39BB2F96801F500611343C4
:103E9000CB61BB685A01FB68134403F510631B68D0
:103EA00003F40043002B55D1BB685A01FB6813444F
:103EB00003F510631A683B689B68C3F30A013B680B
:103EC0001B799B041943BB689B050B431343BA68DA
:103ED0005101FA680A4402F5106243F0805343F43A
:103EE0000043136036E0FB6803F50063DA693B6862
:103EF0001B7803F00F03012101FA03F31B04F96897
:103F000001F500611343CB61BB685A01FB681344A0
:103F100003F530631B6803F40043002B1AD1BB6820
:103F20005A01FB68134403F530631A683B689B68C9
:103F3000C3F30A013B681B799B040B431343BA6824
:103F40005101FA680A4402F5306243F0805343F4A9
:103F500000431360002318461437BD465DF8047B08
:103F6000704780B485B000AF786039607B68FB60D3
:103F70003B681B78BB603B685B78012B3AD1BB6820
:103F80005A01FB68134403F510631B6803F40043F4
:103F9000002B1DD1BB685A01FB68134403F5106365
:103FA0001A683B689B68C3F30A013B681B799B0452
:103FB0001943BB689B050B431343BA685101FA6868
:103FC0000A4402F5106243F0805343F40043136047
:103FD000FB6803F50063DA6B3B681B7803F00F03A3
:103FE000012101FA03F39BB2F96801F50061134363
:103FF000CB6337E0BB685A01FB68134403F53063B9
:104000001B6803F40043002B1BD1BB685A01FB68FB
:10401000134403F530631A683B689B68C3F30A01D5
:104020003B681B799B041943BB689B050B431343F7
:10403000BA685101FA680A4402F5306243F4004359
:104040001360FB6803F50063DA6B3B681B7803F0D1
:104050000F03012101FA03F31B04F96801F5006164
:104060001343CB63002318461437BD465DF8047B29
:10407000704780B485B000AF786039607B68FB60C2
:104080003B681B78BB603B685B78012B61D1BB68E8
:104090005A01FB68134403F510631B6803F00043E7
:1040A000B3F1004F1FD1BB685A01FB68134403F5FD
:1040B00010631B68BA685101FA680A4402F510627D
:1040C00043F000631360BB685A01FB68134403F5B7
:1040D00010631B68BA685101FA680A4402F510625D
:1040E00043F080431360FB6803F50063DA6B3B68C1
:1040F0001B7803F00F03012101FA03F39BB2DB43AA
:10410000F96801F500611340CB63FB6803F50063B8
:10411000DA693B681B7803F00F03012101FA03F30E
:104120009BB2DB43F96801F500611340CB61BB68CA
:104130005A01FB68134403F510631A68BB68590100
:10414000FB680B4403F510631946364B13400B60B4
:1041500060E0BB685A01FB68134403F530631B68D9
:1041600003F00043B3F1004F1FD1BB685A01FB6855
:10417000134403F530631B68BA685101FA680A44B6
:1041800002F5306243F000631360BB685A01FB68BC
:10419000134403F530631B68BA685101FA680A4496
:1041A00002F5306243F080431360FB6803F500635F
:1041B000DA6B3B681B7803F00F03012101FA03F36C
:1041C0001B04DB43F96801F500611340CB63FB6816
:1041D00003F50063DA693B681B7803F00F030121E4
:1041E00001FA03F31B04DB43F96801F50061134096
:1041F000CB61BB685A01FB68134403F530631A684E
:10420000BB685901FB680B4403F530631946064B44
:1042100013400B60002318461437BD465DF8047B3D
:10422000704700BF007833EC0078F3EF80B485B0BE
:1042300000AF786039607B68FB603B681B78BB60CF
:104240003B685B78012B4ED1BB685A01FB68134475
:1042500003F510631B6803F00043B3F1004F1FD157
:10426000BB685A01FB68134403F510631B68BA6806
:104270005101FA680A4402F5106243F000631360CA
:10428000BB685A01FB68134403F510631B68BA68E6
:104290005101FA680A4402F5106243F0804313604A
:1042A000BB685A01FB68134403F510631B68BA68C6
:1042B0005101FA680A4402F5106223F400431360C6
:1042C000FB6803F50063DA693B681B7803F00F03B2
:1042D000012101FA03F39BB2DB43F96801F50061A8
:1042E0001340CB614DE0BB685A01FB68134403F5F2
:1042F00030631B6803F00043B3F1004F1FD1BB686C
:104300005A01FB68134403F530631B68BA68510116
:10431000FA680A4402F5306243F000631360BB6838
:104320005A01FB68134403F530631B68BA685101F6
:10433000FA680A4402F5306243F080431360BB68B8
:104340005A01FB68134403F530631B68BA685101D6
:10435000FA680A4402F5306223F400431360FB68F4
:1043600003F50063DA693B681B7803F00F03012152
:1043700001FA03F31B04DB43F96801F50061134004
:10438000CB61002318461437BD465DF8047B7047A7
:1043900080B58AB002AFF860B9601346FB71FB6864
:1043A000FB61BB681B78BB61BB685B78012B40F08D
:1043B0007F81BB681B69002B32D1BB695A01FB6945
:1043C000134403F510631B69BA695101FA690A4481
:1043D00002F5106223F0FF5323F4C0131361BB698D
:1043E0005A01FB69134403F510631B69BA69510153
:1043F000FA690A4402F5106243F400231361BB69B1
:104400005A01FB69134403F510631B69BA69510132
:10441000FA690A4402F51062DB0CDB04136197E0D1
:10442000BB695A01FB69134403F510631B69BA6940
:104430005101FA690A4402F51062DB0CDB041361D6
:10444000BB695A01FB69134403F510631B69BA6920
:104450005101FA690A4402F5106223F0FF5323F474
:10446000C0131361BB69002B1AD1BB681A69BB6802
:104470009B689A4203D9BB689A68BB681A61BB699A
:104480005A01FB69134403F510631B69BA695101B2
:10449000FA690A4402F5106243F40023136144E010
:1044A000BB681A69BB689B6813445A1EBB689B684B
:1044B000B2FBF3F3FB82BB695A01FB69134403F5BA
:1044C00010631A69FB8AD904A44B0B40B9694801EF
:1044D000F969014401F5106113430B61BB681B7955
:1044E000012B22D1BB695A01FB69134403F5106308
:1044F0001B69BA695101FA690A4402F5106223F096
:10450000C0431361BB695A01FB69134403F510638F
:104510001A69FB8A5B0703F0C043B9694801F9696E
:10452000014401F5106113430B61BB695A01FB693A
:10453000134403F510631A69BB681B69C3F31203C4
:10454000B9694801F969014401F5106113430B6130
:10455000FB79012B4BD1BB68DB69002B09D0BB6910
:104560005A01FB69134403F510631A46BB68DB6903
:104570005361BB681B79012B28D1FB6903F50063EC
:104580009B6803F48073002B10D1BB695A01FB694F
:10459000134403F510631B68BA695101FA690A44B0
:1045A00002F5106243F0005313600FE0BB695A013B
:1045B000FB69134403F510631B68BA695101FA697A
:1045C0000A4402F5106243F080531360BB695A013C
:1045D000FB69134403F510631B68BA695101FA695A
:1045E0000A4402F5106243F00443136066E1BB69BC
:1045F0005A01FB69134403F510631B68BA69510142
:10460000FA690A4402F5106243F004431360BB6880
:104610001B79012B15D0BB681B69002B00F04E8164
:10462000FB6903F500635A6BBB681B7803F00F034B
:10463000012101FA03F3F96901F5006113434B63AA
:104640003CE1FB6903F500639B6803F48073002B76
:1046500010D1BB695A01FB69134403F510631B6851
:10466000BA695101FA690A4402F5106243F0005335
:1046700013600FE0BB695A01FB69134403F5106333
:104680001B68BA695101FA690A4402F5106243F0E5
:1046900080531360BB68D968BB681A78BB681B6914
:1046A00098B2FB7900930346F86800F0B9F905E188
:1046B000BB695A01FB69134403F530631B69BA698E
:1046C0005101FA690A4402F53062DB0CDB04136124
:1046D000BB695A01FB69134403F530631B69BA696E
:1046E0005101FA690A4402F5306223F0FF5323F4C2
:1046F000C0131361BB69002B32D1BB681B69002B4F
:1047000003D0BB689A68BB681A61BB689A68BB68CB
:104710001A62BB695A01FB69134403F530631A69D5
:10472000BB681B6AC3F31203B9694801F969014404
:1047300001F5306113430B61BB695A01FB691344F6
:1047400003F530631B69BA695101FA690A4402F53D
:10475000306243F40023136162E000BF0000F81FE1
:10476000BB681B69002B23D1BB695A01FB69134449
:1047700003F530631A69BB689B68C3F31203B96918
:104780004801F969014401F5306113430B61BB69CC
:104790005A01FB69134403F530631B69BA6951017F
:1047A000FA690A4402F5306243F40023136137E0EA
:1047B000BB681A69BB689B6813445A1EBB689B6838
:1047C000B2FBF3F3FB82BB689B68FA8A03FB02F23D
:1047D000BB681A62BB695A01FB69134403F5306375
:1047E0001A69FB8AD904384B0B40B9694801F96949
:1047F000014401F5306113430B61BB695A01FB6948
:10480000134403F530631A69BB681B6AC3F31203D0
:10481000B9694801F969014401F5306113430B613D
:10482000FB79012B0DD1BB68DB68002B09D0BB687D
:10483000D968BB695A01FB69134403F530630A4622
:104840005A61BB681B79012B28D1FB6903F5006312
:104850009B6803F48073002B10D1BB695A01FB697C
:10486000134403F530631B68BA695101FA690A44BD
:1048700002F5306243F0005313600FE0BB695A0148
:10488000FB69134403F530631B68BA695101FA6987
:104890000A4402F5306243F080531360BB695A0149
:1048A000FB69134403F530631B68BA695101FA6967
:1048B0000A4402F5306243F00443136000231846B3
:1048C0002037BD4680BD00BF0000F81F80B487B010
:1048D00000AF786039600023FB600023FB757B68C4
:1048E0003B613B685B78012B4AD13B681B785A01DE
:1048F0003B69134403F510631B6803F00043B3F1F5
:10490000004F40F086803B681B785A013B69134496
:1049100003F510631B683A68127851013A690A443A
:1049200002F5106243F0006313603B681B785A0184
:104930003B69134403F510631B683A681278510110
:104940003A690A4402F5106243F080431360FB6841
:104950000133FB60FB6842F21072934202D90123DB
:10496000FB7556E03B681B785A013B69134403F51D
:1049700010631B6803F00043B3F1004FE7D048E039
:104980003B681B785A013B69134403F530631B688D
:1049900003F00043B3F1004F3BD13B681B785A0151
:1049A0003B69134403F530631B683A681278510180
:1049B0003A690A4402F5306243F0006313603B68D1
:1049C0001B785A013B69134403F530631B683A684E
:1049D000127851013A690A4402F5306243F080438B
:1049E0001360FB680133FB60FB6842F21072934274
:1049F00002D90123FB750CE03B681B785A013B6927
:104A0000134403F530631B6803F00043B3F1004F18
:104A1000E7D0FB7D18461C37BD465DF8047B704728
:104A200080B489B000AFF860B96011461A460B46F1
:104A3000FB711346BB80FB687B61BB68FB6197F829
:104A40002830002B23D1BB8803339B083B61002314
:104A5000BB6118E0FB791A037B69134403F58053AB
:104A60001A46FB691B681360FB690133FB61FB6934
:104A70000133FB61FB690133FB61FB690133FB61BE
:104A8000BB690133BB61BA693B699A42E2D3002337
:104A900018462437BD465DF8047B704780B48BB060
:104AA00000AFF860B9601346FB80FB68BB61BB6870
:104AB0007B62FB889B089BB27B61FB8803F003034E
:104AC000FB8300233B6214E0BB6903F580531A6843
:104AD0007B6A1A607B6A01337B627B6A01337B628B
:104AE0007B6A01337B627B6A01337B623B6A013301
:104AF0003B623A6A7B699A42E6D3FB8B002B1ED05D
:104B000000233B62BB6903F580531A4607F110038B
:104B100012681A603A693B6ADBB2DB0022FA03F3DF
:104B2000DAB27B6A1A703B6A01333B627B6A0133FB
:104B30007B62FB8B013BFB83FB8B002BEAD17B6A07
:104B400018462C37BD465DF8047B704780B485B0AD
:104B500000AF786039607B68FB603B681B78BB60A6
:104B60003B685B78012B2CD1BB685A01FB6813446E
:104B700003F510631B68002B12DBBB68002B0FD002
:104B8000BB685A01FB68134403F510631B68BA68DD
:104B90005101FA680A4402F5106223F08043136061
:104BA000BB685A01FB68134403F510631B68BA68BD
:104BB0005101FA680A4402F5106243F400131360CD
:104BC0002BE0BB685A01FB68134403F530631B6894
:104BD000002B12DBBB68002B0FD0BB685A01FB68AF
:104BE000134403F530631B68BA685101FA680A443C
:104BF00002F5306223F080431360BB685A01FB6802
:104C0000134403F530631B68BA685101FA680A441B
:104C100002F5306243F40013136000231846143782
:104C2000BD465DF8047B704780B485B000AF786006
:104C300039607B68FB603B681B78BB603B685B78D6
:104C4000012B28D1BB685A01FB68134403F510639C
:104C50001B68BA685101FA680A4402F5106223F42D
:104C6000001313603B681B79032B03D03B681B794F
:104C7000022B38D1BB685A01FB68134403F510635B
:104C80001B68BA685101FA680A4402F5106243F0E1
:104C90008053136027E0BB685A01FB68134403F597
:104CA00030631B68BA685101FA680A4402F5306241
:104CB00023F4001313603B681B79032B03D03B687C
:104CC0001B79022B0FD1BB685A01FB68134403F513
:104CD00030631B68BA685101FA680A4402F5306211
:104CE00043F080531360002318461437BD465DF827
:104CF000047B704780B586B000AF78607B683B610D
:104D000000237B6116E07B695A013B69134403F57C
:104D100010631A464FF67F3393607B695A013B69F3
:104D2000134403F530631A464FF67F3393607B6973
:104D300001337B617B690E2BE5D93B6903F5006389
:104D40001A46002313613B6903F500631A460023EA
:104D500053613B6903F500631A460023D361786809
:104D6000FFF70CF80346FB73FB7B002B01D0FB7BAA
:104D70000BE010217868FEF7CFFF0346FB73FB7B47
:104D8000002B01D0FB7B00E0FB7B18461837BD46AB
:104D900080BD80B485B000AF78600B46FB707B6847
:104DA000FB60FB6803F500631B68FA6802F50062AC
:104DB00023F4FE631360FB6803F500631A68FB7855
:104DC0001B0103F4FE63F96801F5006113430B60F6
:104DD000002318461437BD465DF8047B704780B445
:104DE00085B000AF78607B68FB60FB6803F56063AB
:104DF0001B68FA6802F5606223F003031360FB6826
:104E000003F500635B68FA6802F5006223F00203B1
:104E10005360002318461437BD465DF8047B704785
:104E200080B485B000AF78607B68FB60FB6803F5F9
:104E300060631B68FA6802F5606223F00303136085
:104E4000FB6803F500635B68FA6802F5006243F0F3
:104E500002035360002318461437BD465DF8047BF7
:104E6000704780B485B000AF78607B685B69FB6099
:104E70007B689B69FA681340FB60FB68184614372F
:104E8000BD465DF8047B704780B485B000AF7860A4
:104E90000B46FB707B68FB60FB785A01FB68134490
:104EA00003F5A0639B68BB60FB785A01FB68134461
:104EB00003F5A063DB68BA681340BB60BB681846A3
:104EC0001437BD465DF8047B704780B485B000AFF1
:104ED00078607B68FB60FB6803F500639B69BB60DF
:104EE000FB6803F50063DB69BA681340BB60BB680D
:104EF0001B0C18461437BD465DF8047B704780B420
:104F000085B000AF78607B68FB60FB6803F50063E9
:104F10009B69BB60FB6803F50063DB69BA681340FB
:104F2000BB60BB689BB218461437BD465DF8047B76
:104F3000704780B485B000AF78600B46FB707B682B
:104F4000FB60FB785A01FB68134403F530639B68F0
:104F5000BB60FB6803F500635B69BA681340BB6024
:104F6000BB6818461437BD465DF8047B704780B4B3
:104F700087B000AF78600B46FB707B687B617B6914
:104F800003F500631B693B617B6903F500635B6BA1
:104F9000FB60FB7803F00F03FA6822FA03F3DB01EE
:104FA000DBB23A6913433B61FB785A017B691344D6
:104FB00003F510639B683A691340BB60BB681846F1
:104FC0001C37BD465DF8047B704780B483B000AFEA
:104FD000786039607B685A693B681A407B685A611F
:104FE00000BF0C37BD465DF8047B704780B483B0CA
:104FF00000AF78607B685B6903F0010318460C37EB
:10500000BD465DF8047B704780B485B000AF786022
:105010007B68FB60FB6803F510631B68FA6802F5A8
:10502000106223F4FF6323F007031360FB6803F5AA
:1050300000635B68FA6802F5006243F480735360B2
:10504000002318461437BD465DF8047B704780B4D2
:1050500087B000AFF8600B467A60FB72FB687B613B
:10506000FB683C3304331B683B613B69254A934230
:105070000AD97B6903F530631B6803F00043B3F181
:10508000004F01D1002337E07B6903F530631A46F6
:10509000002313617B6903F530631B697A6902F5AC
:1050A000306243F4002313617B6903F530631B69AD
:1050B0007A6902F5306243F0180313617B6903F5E6
:1050C00030631B697A6902F5306243F0C0431361B3
:1050D000FB7A012B0FD17B6903F530631A467B689D
:1050E00053617B6903F530631B687A6902F53062AE
:1050F00043F080231360002318461C37BD465DF83B
:10510000047B70470A30544F80B485B000AF78609C
:105110000023FB60FB680133FB60FB68B3F1706F39
:1051200001D9032322E07B681B69002BF2DA0A23F2
:10513000FB6002E0FB68013BFB60FB68002BF9D1E0
:105140007B681B6943F001027B681A61FB680133CD
:10515000FB60FB68B3F1706F01D9032306E07B6845
:105160001B6903F00103012BF0D00023184614370C
:10517000BD465DF8047B704784B080B586B000AF53
:10518000786007F1240080E80E000023FB757B683F
:10519000FB60FB6803F560631A46002313607B68BD
:1051A0009B6B43F400127B689A637B689B6B23F4D0
:1051B00000227B689A637B689B6B23F480227B6868
:1051C0009A637B68DB6803F04003002B19D197F8E2
:1051D0002730012B0AD1FB6803F580631B68FA684E
:1051E00002F5806243F00403136014E0FB6803F5EA
:1051F00080631B68FA6802F5806223F00403136081
:1052000009E0FB6803F580631B68FA6802F58062B9
:1052100023F00403136010217868FEF77DFD034638
:10522000002B01D00123FB757868FEF7A7FD03462C
:10523000002B01D00123FB7500233B6115E03B6986
:105240005A01FB68134403F5A0631A464FF0FF337D
:1052500093603B695A01FB68134403F5A0631A4647
:105260000023D3603B6901333B6197F825301A4630
:105270003B699342E3D37B6800229A617B684FF0DD
:10528000FF325A617B6880225A627B680E4A9A62BA
:105290007B680E4AC3F8002197F82630002B05D111
:1052A0007B689B6943F010027B689A617B689A690E
:1052B000074B13437A689361FB7D18461837BD4648
:1052C000BDE8804004B0704780006000E00040000E
:1052D000080020A380B485B000AF78600B46FB7057
:1052E0007B68FB60FB6803F580631B68FA6802F566
:1052F000806223F003031360FB6803F580631A6880
:10530000FB7803F00303F96801F5806113430B6038
:10531000FB78012B07D1FB6803F580631A464BF637
:10532000803353600CE0FB78022B07D1FB6803F558
:1053300080631A4641F27073536001E0012300E07C
:10534000002318461437BD465DF8047B704780B5CE
:1053500084B000AF78607B68FB600023BB60FB68B3
:1053600003F588631B68BB60BB6823F02E03BB603A
:10537000BB68FA6802F5886243F4807313606420A6
:1053800005F06EFFBB68FA6802F5886223F480734B
:1053900013600A2005F064FF002318461037BD464D
:1053A00080BD80B485B000AF78600B46FB707B6831
:1053B000FB600023BB60FB6803F588631B68BB6070
:1053C000BB6823F02E03BB60BB6803F48053002B43
:1053D00009D1FB78012B06D1BB68FA6802F5886217
:1053E00043F480531360BB6803F48053B3F5805FCC
:1053F00009D1FB78002B06D1BB68FA6802F58862F8
:1054000023F480531360002318461437BD465DF81B
:10541000047B704780B485B000AF78607B68FB6028
:105420000023BB60FB6803F588631B68BB60BB6837
:105430005B0C03F0030318461437BD465DF8047B8C
:10544000704780B485B000AF78607B68FB60FB6814
:1054500003F580639B689BB218461437BD465DF820
:10546000047B704780B588B000AF7860084611466D
:105470001A460346FB700B46BB7013467B70002335
:10548000FB777B683B61FB785A013B69134403F56A
:10549000A0631A464FF0FF33936097F82C30032B2C
:1054A00067D801A252F823F0B95400083555000816
:1054B000B9540008F7540008FB785A013B691344BB
:1054C00003F5A0631A4640F29D43D36097F902307A
:1054D000002B51DAFB785A013B69134403F5A063B2
:1054E000DB68FA7851013A690A4402F5A06243F494
:1054F0008073D36040E0FB785A013B69134403F5A5
:10550000A0631A4640F29D63D36097F90230002BE6
:1055100034DAFB785A013B69134403F5A063DB6876
:10552000FA7851013A690A4402F5A06243F48073A3
:10553000D36023E0FB785A013B69134403F5A06371
:105540001A4640F22523D36097F90230002B17DA70
:10555000FB785A013B69134403F5A063DB68FA78D2
:1055600051013A690A4402F5A06243F4C073D36062
:1055700006E00123FB7704E000BF02E000BF00E08B
:1055800000BFFB785A013B69134403F5A0631A4638
:1055900000235360FB785A013B69134403F5A06371
:1055A000DB68FA7851013A690A4402F5A06243F0D7
:1055B0000203D3603B6903F580639A69FB7803F0CB
:1055C0000F03012101FA03F3396901F580611343E7
:1055D0008B617B689B6943F000727B689A6197F9E5
:1055E0000230002B03DA4FF40043BB6101E00023DB
:1055F000BB617868FFF70EFFF86097F82830022B40
:1056000006D1FB68022B03D04FF400337B6101E02D
:1056100000237B617B789B0503F0FE52BB78DB02A5
:1056200003F4F0431A4397F82C309B0403F440230F
:105630001A433B8EC3F30A031A43BB691A437B69BF
:105640001343FA7851013A690A4402F5A06243F41F
:105650008013136097F82C30032B03D097F82C306D
:10566000012B0FD1FB785A013B69134403F5A0636A
:105670001B68FA7851013A690A4402F5A06243F0C6
:1056800000531360FB7F18462037BD4680BD80B5B0
:105690008CB002AFF860B9601346FB71FB683B62E7
:1056A000BB685B78FB614FF480737B83BB689B793D
:1056B000012B58D10123FB84BB68DB78002B07D07A
:1056C000FB8CBA68928A03FB02F2BB68DA6179E06C
:1056D000BB689B7C012B30D1BB681B6ABC2B18D9E3
:1056E000BB689B8A1A46BB68DA61BB68DA69BB682B
:1056F0001A62BB68DB68012B03D0BB68DB68022B36
:1057000003D1BB680222DA605CE0BB680122DA6088
:1057100058E0BB681A6ABB68DA61BB68DB68012BBA
:1057200007D0BB68DB68022B03D0BB680422DA60B9
:1057300048E0BB680322DA6044E0FB79012B0DD11D
:10574000BB681B6ABA68928A934207D9FB8CBA6815
:10575000928A03FB02F2BB68DA6133E0BB681A6A23
:10576000BB68DA612EE0BB681B6A002B18D0BB68EF
:105770001B6ABA68928A1344013BBA68928AB3FBE7
:10578000F2F3FB84FA8C7B8B9A420BD97B8BFB84E4
:10579000FB8CBA68928A03FB02F2BB68DA6101E013
:1057A0000123FB84BB68DB78002B07D0FB8CBA6835
:1057B000928A03FB02F2BB68DA6103E0BB681A6AF3
:1057C000BB68DA61BB68DB69C3F31202FB8CD904E6
:1057D000A34B0B401A43BB689B7D5B0703F0C043A0
:1057E000F9694801396A014401F5A06113430B616D
:1057F000FB79002B09D0BB689969FB695A013B6AA8
:10580000134403F5A0630A465A613B6A03F58063BB
:105810009B6803F00103002B0CBF01230023DBB2C4
:105820007B76FB695A013B6A134403F5A0631B684E
:10583000FA6951013A6A0A4402F5A06223F0005362
:105840001360FB695A013B6A134403F5A0631A68AD
:105850007B7E5B07F9694801396A014401F5A06163
:1058600013430B60BB689B79012B40F0C380BB687E
:105870005B7CDB01BA68127C1343FA6951013A6A16
:105880000A4402F5A06243F000435360FB695A01E9
:105890003B6A134403F5A063DB68FA6951013A6A75
:1058A0000A4402F5A06243F06003D360BB68DB7971
:1058B000012B23D1BB68DB78002B1FD1FB695A0178
:1058C0003B6A134403F5A0635B68FA6951013A6AC5
:1058D0000A4402F5A06243F480335360FB695A0125
:1058E0003B6A134403F5A063DB68FA6951013A6A25
:1058F0000A4402F5A06243F04003D360BB689B7C7E
:10590000012B03D0BB689B7C032B17D1BB68DB79D1
:10591000012B13D1BB68DB78012B0FD1FB695A0136
:105920003B6A134403F5A0635B68FA6951013A6A64
:105930000A4402F5A06243F480335360BB689B7C49
:10594000012B62D1BB68DB78002B5ED1BB68DB68C2
:10595000013B032B58D801A252F823F06D590008DF
:105960008F590008B1590008D3590008FB695A0142
:105970003B6A134403F5A0635B68FA6951013A6A14
:105980000A4402F5A06243F4004353603DE0FB6922
:105990005A013B6A134403F5A0635B68FA6951013D
:1059A0003A6A0A4402F5A06243F00E0353602CE009
:1059B000FB695A013B6A134403F5A0635B68FA690B
:1059C00051013A6A0A4402F5A06243F480435360ED
:1059D0001BE0FB695A013B6A134403F5A0635B6853
:1059E000FA6951013A6A0A4402F5A06243F440435D
:1059F00053600AE0FB695A013B6A134403F5A06354
:105A00001A460023536000E000BFFB695A013B6A5D
:105A1000134403F5A0631B683B613B6923F080439B
:105A20003B61BB68DB78002B04D03B6943F4004347
:105A30003B6103E03B6923F400433B613B6943F076
:105A400000433B61FB695A013B6A134403F5A063C1
:105A50001A463B691360FB79002B03D0002355E005
:105A60000000F81FBB68DB78002B4ED1BB681B6AB7
:105A7000002B4AD0BB68DB79002B46D1BB689B7CEE
:105A8000032B31D801A252F823F000BF9D5A000821
:105A9000C15A00089D5A0008C15A0008BB681B6A19
:105AA00003339B08FB82FA8AFB68DB6A9BB29A424B
:105AB0001CD9FB689B6943F02002FB689A6115E0E2
:105AC000BB681B6A03339B08FB82FA8A3B6A03F5B7
:105AD00080631B699BB29A420AD9FB689B6943F0B9
